:100000000C942A000C9447000C9447000C94470071
:100010000C9447000C9447000C9447000C94470044
:100020000C9447000C9447000C9447000C94470034
:100030000C9447000C9447000C9447000C94470024
:100040000C9447000C9447000C9447000C94470014
:100050000C94470011241FBECFE5D8E0DEBFCDBF12
:1000600010E0A0E6B0E0EAE6F1E002C005900D92F3
:10007000A237B107D9F710E0A2E7B0E001C01D92A6
:10008000A43FB107E1F70E9496000C94B3000C94D2
:10009000000090917300E92FF0E0EC58FF4F80834F
:1000A0009F5F9093730097FF02C0109273000895B2
:1000B0009091720080917300981779F0E92FF0E029
:1000C000EC58FF4F80818CB9E92FEF5FE09372000D
:1000D000E7FF03C0EF5FE09372000895CF93DF93D3
:1000E0009C0140E012C080917300E82FF0E0EC58D2
:1000F000FF4FC20FD31F988190838F5F809373004F
:1001000087FF02C0109273004F5FC42FD0E0F90147
:1001100001900020E9F73197E21BF30BCE17DF07C0
:1001200010F35D991CB8DF91CF91089510BC83E363
:1001300089B988E58AB986E880BD80E690E00E94AA
:100140006E0087E690E00E946E0080E29EE428EC5C
:1001500030E0F9013197F1F70197D9F78CE690E09B
:0A0160000E946E00FFCFF894FFCF5D
:10016A0048616C6F0A0D0078440A0D00456C6F0AED
:02017A000D0076
:00000001FF
