:100000000C942A000C9447000C9447000C94470071
:100010000C9449150C9447000C9447000C9447002D
:100020000C9447000C9447000C9447000C94470034
:100030000C9447000C9447000C9447000C94470024
:100040000C9447000C9447000C9447000C94470014
:100050000C94470011241FBECFE5D8E0DEBFCDBF12
:1000600011E0A0E6B0E0EAEDFEE302C005900D92DB
:10007000A031B107D9F713E0A0E1B1E001C01D92B2
:10008000AA38B107E1F70E9476150C946B1F0C9407
:1000900000000E94F71B0895882311F084E0089562
:1000A000862FBA010E94D31808950F931F938823B7
:1000B00011F084E006C0CB01BA01A90198010E94A9
:1000C0005C181F910F9108950F931F93882311F0CF
:1000D00084E006C0CB01BA01A90198010E940C1866
:1000E0001F910F910895882311F081E008950E94D7
:1000F00028170895882311F081E008950E940918B7
:100100000895FC01238130E040E050E0542F432F5C
:10011000322F2227828190E0A0E0B0E0282B392BFB
:100120004A2B5B2B542F432F322F2227818190E0C3
:10013000A0E0B0E0282B392B4A2B5B2B542F432F08
:10014000322F2227808190E0A0E0B0E0282B392BCD
:100150004A2B5B2BB901CA010895CF93DF939C0111
:10016000FC014193BB27A72F962F852FE901898397
:10017000CB01AA27BB278183472F552766277727DF
:100180004283DF91CF910895EF92FF920F931F93D7
:10019000FC01DB015B969C915B9780E05A962C9169
:1001A0005A9730E0822B932B7C0100E010E0808195
:1001B000833091F455969C91559780E054962C91FC
:1001C00030E0822B932BA0E0B0E0DC019927882758
:1001D000E82AF92A0A2B1B2BB701C8011F910F919E
:1001E000FF90EF900895CF93DF93EC01E881F981C0
:1001F0003097F9F0DF018C918132B0F011968A339B
:10020000D1F79081892F80538A3098F43296EA177B
:10021000FB0779F4892F90E0C097823091054CF468
:10022000B983A8839C0107C080911601282F30E074
:1002300002C02FEF3FEFC901DF91CF9108950F93D7
:100240001F93CF93DF93EC018B01009799F0E88126
:10025000F981309779F08081882361F02A813B8190
:10026000858196812817390729F481810E947A00B7
:1002700080FF0CC080E090E029E0F801918380834A
:10028000822FDF91CF911F910F91089588819981DD
:1002900020E0F3CF8F929F92AF92BF92CF92DF92E6
:1002A000EF92FF920F931F93CF93DF93EC018B811B
:1002B0008823C1F133E3C32ED12CCC0EDD1E2FA534
:1002C00038A949A95AA98981B60101E010E00E9424
:1002D0005500882311F081E026C01B82EFA4F8A806
:1002E00009A91AA92B8D3C8D4D8D5E8D8BA19CA1EA
:1002F000ADA1BEA147015801881A990AAA0ABB0AF2
:1003000082169306A406B50668F48A81823051F4F9
:100310002E0D3F1D401F511F8981B60101E010E0E5
:100320000E94550080E0DF91CF911F910F91FF90C7
:10033000EF90DF90CF90BF90AF909F908F900895F7
:10034000AF92BF92CF92DF92EF92FF920F931F93E3
:10035000DF93CF930F92CDB7DEB75C016A017B01CB
:10036000FC0187A590A9A1A9B2A9481759076A0756
:100370007B0711F490E01FC0C5010E944A01982F2D
:100380008823C9F4B5016D5C7F4FF5018181A70118
:10039000960101E010E099830E946400998188230E
:1003A00029F0CC24CA94DC2C760191E0F501C7A693
:1003B000D0AAE1AAF2AA892F0F90CF91DF911F91C5
:1003C0000F91FF90EF90DF90CF90BF90AF90089586
:1003D0000F931F93CF93DF93EC011B828FEF9FEF5F
:1003E000AFEFBFEF8FA798ABA9ABBAABCE010E941E
:1003F000A001882319F024E030E098C0CE5CDD4FE6
:10040000988180E02A91C153D240022F10E0082B3E
:10041000192B8BA98B3E29F0893E19F0883E09F0F3
:100420007AC02AEA0535120761F4CE018B579F4F37
:1004300060E670E048E050E00E94641C009709F418
:1004400073C09FAD80E02EAD422F50E0482B592B5A
:10045000C05CDF4F2881C054D040CA01019784237B
:100460009523892B09F057C082E04030580708F4E3
:1004700052C04050524009F04EC0222309F44BC0F4
:1004800030E0C901019782239323892B09F043C0EF
:10049000CE5BDF4F988180E02A91C154D04030E09C
:1004A000822B932B892BB9F1CD5BDF4F8881C3540D
:1004B000D04090E00197029770F5CB5BDF4F9881B9
:1004C00080E02A91C454D04030E0822B932B892BBA
:1004D00011F1C95BDF4F988180E02A91C654D0406A
:1004E00030E0822B932B8038910550F4CE018D5A49
:1004F0009F4F0E948100605070408140904058F0B2
:10050000C65BDF4F388120E0FE01829190E0282B0E
:10051000392B232B49F405551A4A19F023E030E012
:1005200005C022E030E002C020E030E0C901DF91E8
:10053000CF911F910F9108952F923F924F925F920A
:100540006F927F928F929F92AF92BF92CF92DF92E3
:10055000EF92FF920F931F93DF93CF93CDB7DEB748
:1005600068970FB6F894DEBF0FBECDBF6B01B42EF7
:10057000DB011D921C920E94F3007C0197FF02C0D8
:100580008BE0C6C2FC01EE0FFF1FE05FFE4F008153
:1005900011810115110511F48CE0BAC2F601118325
:1005A0000083BEEFDB2EDB20D8018C91882361F025
:1005B00011968C910E947A0080FD06C0DD2009F41E
:1005C000A4C282FDA0C2A1C2F8011082E1828E2DD8
:1005D0000E94730080FF02C083E09AC2DD2011F008
:1005E00082FD91C2C80140E050E060E070E00E94EE
:1005F000E8018230910509F040C06E010894C11CE9
:10060000D11C5601A6ECEA2EA1E0FA2E23E330E03D
:10061000E20EF31EC8018E0D9F1D0E948100D501C0
:100620006D937D938D939D935D01EDEDFFEFEE0E48
:10063000FF1EF6E0EF16F2E0FF0641F7F1E1EF2EC4
:10064000F12CEC0EFD1ED6014D915D916D917C91CA
:10065000411551056105710519F483E090E006C06C
:10066000C8010E94E8018230910578F0E4E0F0E0F2
:10067000CE0EDF1ECE14DF0431F78430910511F465
:1006800081E046C2029708F042C2D8019F968D9140
:100690009D910D90BC91A02D8D8B9E8BAF8BB88FB3
:1006A000F80197AD80E026AD30E0822B932B80508F
:1006B000924009F02CC2065B1F4FD8019C9180E04C
:1006C000F80122918F010954104030E0822B932BC6
:1006D0002C0166247724411451046104710439F417
:1006E000C801895A9F4F0E9481002B013C01D8010B
:1006F0005B964D925D926D927C925E970D5B1F4F63
:10070000F801308003541040D80112963C92832D9A
:100710008150823008F0FBC1005C1F4FF8018081DE
:1007200000541040282F30E0D8011A963C932E93A5
:1007300019972115310509F4EAC1C90101978223EE
:100740009323892B09F0E3C10B5B1F4FF8019081C4
:1007500080E0D8012E918D0104541040C22EDD247A
:10076000C82AD92AF801D086C782C6018F70907036
:10077000892B09F0CCC1095B1F4FD8019C9180E007
:10078000F80122918F010654104030E0822B932B08
:100790004C01AA24BB2481149104A104B10439F4AE
:1007A000C8018D5A9F4F0E9481004B015C010E5B76
:1007B0001F4FD8019C9180E0F80122918F010154D4
:1007C0001040E22EFF24E82AF92AE114F10409F48A
:1007D0009EC1232D30E040E050E0C301B2010E94F1
:1007E0000F1C698B7A8B8B8B9C8B2701662477245B
:1007F000E4E0D694C794EA95E1F7EE24FF24C40C14
:10080000D51CE61CF71CC60ED71EE81EF91E8C145C
:100810009D04AE04BF0408F47AC18C189D08AE088C
:10082000BF08D80119962D913C911A9740E050E0ED
:10083000C501B4010E94421CC901DA010097A1055B
:10084000B10509F464C1863FEFEF9E07EFEFAE07F5
:10085000EFE0BE0708F05BC1863FFFEF9F07F0E0C7
:10086000AF07F0E0BF0720F053E0252E312C0FC07A
:10087000863F2FE0920720E0A20720E0B20720F495
:1008800041E0242E312C03C032E0232E312C22E013
:10089000822E912CA12CB12C880E991EAA1EBB1E53
:1008A000D80157968D929D92AD92BC925A978D89A0
:1008B0009E89AF89B88DF801878F90A3A1A3B2A3B9
:1008C0009C01AD01240D351D461D571DD801939681
:1008D0002D933D934D935C9396978D899E89AF8917
:1008E000B88DC80ED91EEA1EFB1ED8019B96CD926C
:1008F000DD92ED92FC929E97B3E02B16310461F5E8
:10090000025A1F4FF801908180E0D8012E918D018D
:100910000D55104030E0822B932B892B09F0F7C046
:10092000F80187819085892B09F0F1C0C801815AAF
:100930009F4F0E948100D80197966D937D938D9370
:100940009C939A97A5019401F2E0220F331F441F54
:10095000551FFA95D1F738C0F80187819085892B0A
:1009600009F4D5C089899A89AB89BC89280F391FB8
:100970004A1F5B1FD80197962D933D934D935C932F
:100980009A97D501C401880F991FAA1FBB1FE2E0E7
:100990002E16310419F49C01AD0116C09C01AD0165
:1009A000280D391D4A1D5B1D56954795379527958E
:1009B00081E090E0A0E0B0E088229922AA22BB2248
:1009C000280D391D4A1D5B1D21503E4F4F4F5F4F73
:1009D00069E056954795379527956A95D1F7F801BF
:1009E000838D948DA58DB68D82179307A407B507C7
:1009F00008F48DC08FEF9FEFAFEFBFEF8787908B2D
:100A0000A18BB28B83879487A587B68780E8848380
:100A1000F3E02F16310409F061C00C591F4FD801C3
:100A20009C9180E0F80122918F010356104030E044
:100A3000822B932B019709F051C08D899E89AF8934
:100A4000B88D0196A11DB11D8D8B9E8BAF8BB88F7C
:100A5000C8014D895E896F89788D0E94A001882325
:100A600009F03CC0D80114961C920E5C1D4FF80191
:100A7000908180E0D8012E918D010153124030E029
:100A8000822B932B85559A4A49F5C801C3960E943B
:100A90008100625572458146914401F5C801895E25
:100AA0009D4F0E9481006257724781449146B1F484
:100AB000C801855E9D4F0E948100D8011F966D93ED
:100AC0007D938D939C935297C801815E9D4F0E94A8
:100AD0008100F8016387748785879687D8012C92F7
:100AE00080911401909115010196909315018093C6
:100AF000140116969C938E931597F801138A148A05
:100B0000158A168A02C08AE003C080E001C08DE029
:100B100068960FB6F894DEBF0FBECDBFCF91DF91C0
:100B20001F910F91FF90EF90DF90CF90BF90AF900B
:100B30009F908F907F906F905F904F903F902F90FD
:100B400008951F93DF93CF9300D000D000D0CDB78E
:100B5000DEB79C838B837E836D83142F7A836983B6
:100B6000CE0101960E94F300DC0197FF02C08BE0EA
:100B700022C0FC01EE0FFF1FE05FFE4F0190F081ED
:100B8000E02D309709F01082EB81FC81309709F05D
:100B90001082AA0FBB1FA05FBE4FED93FC931123E1
:100BA00011F480E008C0CE010596BE016D5F7F4F55
:100BB00040E00E949C0226960FB6F894DEBF0FBE5E
:100BC000CDBFCF91DF911F910895BF92CF92DF9259
:100BD000EF92FF920F931F93CF93DF93FC017A0163
:100BE0008B01C081D181423051056105710508F446
:100BF000B3C08F89988DA98DBA8D481759076A0798
:100C00007B0708F0A9C08881823009F45AC083307C
:100C100009F47CC0813009F09FC06A01D694C79462
:100C2000C40ED51EA601452F5527469560E070E0FD
:100C30008BA19CA1ADA1BEA1480F591F6A1F7B1FAC
:100C4000CE010E94A001882309F08BC0F601F1704B
:100C5000EC0FFD1FB3A80894C11CD11CA601452FA1
:100C60005527469560E070E08BA19CA1ADA1BEA187
:100C7000480F591F6A1F7B1FCE010E94A0018823C5
:100C800009F06FC06B2D70E08FEF91E0C822D92280
:100C9000CC0DDD1D9BA980E0682B792BC7018170ED
:100CA0009070892B39F0E4E076956795EA95E1F745
:100CB0009B0129C09B0140E050E03F7040705070A4
:100CC00054C07727612F502F4F2D8BA19CA1ADA130
:100CD000BEA1480F591F6A1F7B1FCE010E94A001B1
:100CE000882309F03EC0EE0CFF1C001F111FC70136
:100CF0009170FE01E80FF91F34A920E083A990E06C
:100D0000822B932B9C0140E050E02FC037E076957A
:100D10006795579547953A95D1F78BA19CA1ADA1C1
:100D2000BEA1480F591F6A1F7B1FCE010E94A00160
:100D30008823B9F422E0EE0CFF1C001F111F2A9536
:100D4000D1F7C7019170C3968C0F9D1F0E9481003F
:100D50009B01AC015F7009C021E030E040E050E051
:100D600004C02FEF3FEF4FEF5FEFB901CA01DF91F2
:100D7000CF911F910F91FF90EF90DF90CF90BF9098
:100D800008952F923F924F925F926F927F928F922F
:100D90009F92AF92BF92CF92DF92EF92FF920F930A
:100DA0001F93CF93DF932C013A014B01FC01C081CB
:100DB000D1814030F0E05F07F0E26F07F0E07F079D
:100DC00008F0D8C0DB01CA018F719070A070B070BC
:100DD0000097A105B10509F0CDC0F20146875787FC
:100DE000608B718BE680F78000851185E114F1043A
:100DF0000105110551F58881833040F08FA198A538
:100E0000A9A5BAA50097A105B105E9F4A40193012C
:100E100065E056954795379527956A95D1F78F8167
:100E20009885A0E0B0E0281739074A075B0708F06B
:100E3000A1C08FA198A5A9A5BAA5F201868B978B11
:100E4000A08FB18F6FC07C018D0189859A855C016F
:100E5000CC24DD2499E0AA0CBB1CCC1CDD1C9A958B
:100E6000D1F7120126C0C101B801A7010E94E50512
:100E70007B018C016F3FFFEF7F07FFEF8F07FFEFD5
:100E80009F0711F481E077C082E0E816F1040105C4
:100E9000110508F46FC08F89988DA98DBA8DE81659
:100EA000F9060A071B0708F065C06A187B088C085A
:100EB0009D086A147B048C049D04A8F68EEFA82E6E
:100EC0008FEFB82E8FEFC82E8FEFD82EAE0CBF1C31
:100ED000C01ED11E8F89988DA98DBA8D0297A10948
:100EE000B109A816B906CA06DB0628F020E030E0F2
:100EF00040E050E012C029853A8540E050E0C6014C
:100F0000B5010E940F1C9B01AC018BA59CA5ADA552
:100F1000BEA5280F391F4A1F5B1FF201268B378B96
:100F2000408F518FF201E28AF38A048B158B268958
:100F30003789408D518D2115310541055105D1F07D
:100F4000D401C30119E0B695A795979587951A9591
:100F5000D1F7820F931FA41FB51F868B978BA08F8D
:100F6000B18FC3019170C396C80FD91FD38FC28FA1
:100F700080E001C082E0DF91CF911F910F91FF903F
:100F8000EF90DF90CF90BF90AF909F908F907F9029
:100F90006F905F904F903F902F9008957F928F9227
:100FA0009F92AF92BF92CF92DF92EF92FF920F93F8
:100FB0001F93CF93DF93EC016A017B014801590134
:100FC000423051056105710508F4DFC08F89988DA5
:100FD000A98DBA8D481759076A077B0708F0D5C055
:100FE0008881823009F472C0833009F491C0813065
:100FF00009F0CBC08A0116950795040F151FA801AB
:10100000452F5527469560E070E08BA19CA1ADA1CE
:10101000BEA1480F591F6A1F7B1FCE010E94A0016D
:10102000782E882309F0B3C0D801B1700F5F1F4F2D
:1010300091E0C922DD24C114D10451F0FE01EA0F70
:10104000FB1F83A98F70982D9295907F982B01C0DC
:10105000982DAC0FBD1FD3969C9381E08B83A80184
:10106000452F5527469560E070E08BA19CA1ADA16E
:10107000BEA1480F591F6A1F7B1FCE010E94A0010D
:10108000782E882309F083C08FEFE82E81E0F82EB8
:10109000E022F122CD2849F004E0B694A794979479
:1010A00087940A95D1F7E82D0BC0FE01EE0DFF1DC8
:1010B000E3A9E07FBB27AB2D9A2D892D8F70E82BFC
:1010C000EC0EFD1ED701D396EC935CC0452F562F36
:1010D000672F77278BA19CA1ADA1BEA1480F591FF7
:1010E0006A1F7B1FCE010E94A001782E882309F081
:1010F0004EC0CC0CDD1CEE1CFF1CF601F170DE01B5
:10110000AE0FBF1FD3968C92D397FD0194AA3AC01D
:10111000F7E07695679557954795FA95D1F78BA1A6
:101120009CA1ADA1BEA1480F591F6A1F7B1FCE0114
:101130000E94A001782E882351F58FEF9FEFAFEF2B
:10114000BFE088229922AA22BB22E2E0CC0CDD1C5F
:10115000EE1CFF1CEA95D1F7860111700D5C1F4F44
:101160000C0F1D1FC8010E9481006070707080709C
:10117000907F862A972AA82AB92AC801B501A40116
:101180000E94AD0081E08B8302C072E0772E872D34
:10119000DF91CF911F910F91FF90EF90DF90CF9053
:1011A000BF90AF909F908F907F9008954F925F92E5
:1011B0006F927F928F929F92AF92BF92CF92DF9267
:1011C000EF92FF920F931F93CF93DF938C012A012D
:1011D0003B01FC01C081D1814115510561057105BB
:1011E00099F48B849C84AD84BE8481149104A10401
:1011F000B10451F18F89988DA98DBA8D8816990601
:10120000AA06BB0608F525C00E94E5059B01AC01B6
:10121000623071058105910508F4EEC06F3FFFEF64
:101220007F07FFEF8F07FFEF9F0709F4F3C08F8958
:10123000988DA98DBA8D281739074A075B0708F4DE
:10124000E9C05301420105C061E0862E912CA12C1A
:10125000B12C8F859889A989BA890097A105B10514
:1012600009F4D4C084149504A604B70409F04AC054
:10127000750164010894C11CD11CE11CF11C8F890B
:10128000988DA98DBA8DC816D906EA06FB0628F0F6
:1012900052E0C52ED12CE12CF12CC801B701A601DA
:1012A0000E94E5059B01AC01613071058105910546
:1012B00009F4B0C02F3F8FEF38078FEF48078FEF4B
:1012C000580709F4A7C02115310541055105A9F0BA
:1012D0002B853C854D855E852230310541055105C4
:1012E00088F08F89988DA98DBA8D281739074A07FC
:1012F0005B0740F449015A0105C0C114D104E1045F
:10130000F104E9F5750164010894C11CD11CE11CCC
:10131000F11C8F89988DA98DBA8DC816D906EA0659
:10132000FB0660F0E2E08E169104A104B10408F41B
:101330006DC042E0C42ED12CE12CF12CC801B701C4
:10134000A6010E94E5059B01AC01611571058105AF
:101350009105A9F0613071058105910509F45AC024
:101360006F3FFFEF7F07FFEF8F07FFEF9F0709F446
:1013700051C0C814D904EA04FB0431F647C0CE01B9
:10138000B701A6010FEF1FEF2FEF3FEF0E94CE072F
:10139000882381F5411451046104710449F0CE01A0
:1013A000B301A201970186010E94CE07882311F59F
:1013B000CB86DC86ED86FE862F85388949895A8959
:1013C0008F89988DA98DBA8D0297A109B1098217CD
:1013D0009307A407B50740F02150304040405040EB
:1013E0002F87388B498B5A8B8C8181608C83A70126
:1013F000960110C0813029F021E030E040E050E05B
:1014000009C02FEF3FEF4FEF5FEF04C020E030E067
:1014100040E050E0B901CA01DF91CF911F910F91D7
:10142000FF90EF90DF90CF90BF90AF909F908F9004
:101430007F906F905F904F9008952F923F924F92C0
:101440005F926F927F928F929F92AF92BF92CF9254
:10145000DF92EF92FF920F931F93DF93CF9300D011
:1014600000D000D0CDB7DEB72C015B01DC016D9060
:101470007C9011971E968D919D910D90BC91A02D01
:101480008096A11DB11D89839A83AB83BC83805054
:101490009040A042B04038F0D20156961D921D9265
:1014A0001D921C925997F20126893789408D518DE2
:1014B000211531054105510509F47CC089819A81C6
:1014C000AB81BC819170A070B0700097A105B1058F
:1014D00009F04CC12F5F3F4F4F4F5F4FD2015696DF
:1014E0002D933D934D935C9359975296ED90FD90BB
:1014F0000D911C915597E114F10401051105B1F40A
:1015000029813A814B815C81A5E0569547953795B5
:101510002795AA95D1F7F30187819085A0E0B0E0E7
:10152000281739074A075B07F0F520C1F3018185C9
:1015300092850197A0E0B0E029813A814B815C81DE
:10154000F9E05695479537952795FA95D1F7822377
:101550009323A423B5230097A105B10509F006C183
:10156000C201B801A7010E94E5056B017C01623050
:1015700071058105910508F40CC16F3F2FEF7207CB
:101580002FEF82072FEF920709F405C1F301878936
:10159000908DA18DB28DC816D906EA06FB0608F417
:1015A000A5C0AB2849F4D20156961D921D921D92FA
:1015B0001C92599784E0F0C0F201428953896489F2
:1015C0007589C2010E94D6086B017C016115710505
:1015D0008105910511F487E0DFC061307105810557
:1015E000910509F4D6C06F3F2FEF72072FEF8207E6
:1015F0002FEF920709F4CFC0C3010E944A0188234C
:1016000009F0C9C0EEEF8E2EEFEF9E2EEFEFAE2E5B
:10161000EFEFBE2E8C0C9D1CAE1CBF1CF301878906
:10162000908DA18DB28D0297A109B10988169906F6
:10163000AA06BB0620F088249924540116C0D301C1
:1016400019962D913C911A9740E050E0C501B401E4
:101650000E940F1C4B015C01F30183A594A5A5A575
:10166000B6A5880E991EAA1EBB1ED3019F968D9209
:101670009D92AD92BC92D29773E3272E312C260C0B
:10168000371C80E092E0F1019C0111922150304022
:10169000E1F71E821D8205C08D819E8101969E8389
:1016A0008D83D30119968D919C911A97ED81FE81BE
:1016B000E817F90780F49F0140E050E0280D391D3C
:1016C0004A1D5B1D11968C91B10101E010E00E9452
:1016D0005500882309F3D30119968D919C911A978F
:1016E000ED81FE81E817F90709F055C0D201529645
:1016F000CD92DD92ED92FC9255978EEF9FEFAFEF7A
:10170000BFEF8C0D9D1DAE1DBF1D7C018D01F30132
:101710008789908DA18DB28D0297A109B109E81634
:10172000F9060A071B0728F020E030E040E050E00F
:1017300016C0D30119962D913C911A9740E050E0C4
:10174000C801B7010E940F1C9B01AC01F30183A5E6
:1017500094A5A5A5B6A5280F391F4A1F5B1FD20166
:1017600056962D933D934D935C93599789819A8119
:10177000AB81BC81F20186879787A08BB18B898171
:101780009A819170C396680E791E738E628E80E086
:1017900003C082E001C081E026960FB6F894DEBF58
:1017A0000FBECDBFCF91DF911F910F91FF90EF90B2
:1017B000DF90CF90BF90AF909F908F907F906F9071
:1017C0005F904F903F902F9008954F925F926F924D
:1017D0007F928F929F92AF92BF92CF92DF92EF92C1
:1017E000FF920F931F93CF93DF93EC015B0168800F
:1017F0007980FB0180818F3279F08C3569F0F301BB
:1018000083899489A589B6898E839F83A887B987A0
:101810000DC00894A11CB11CF50180818F32C9F361
:101820008C35B9F31E821F8218861986F5018081D6
:10183000803238F09CE1492E512C4C0E5D1E05E0A3
:101840000BC080E88FA3CE0140E050E060E070E084
:101850000E94C106182FEAC0C20160E270E04BE0AE
:1018600050E00E947A1CF50180818E3241F0CC2438
:10187000DD24EE24FF2488E0882E912C29C0DE018F
:1018800080E090E0F501E80FF91FE0810196EE326B
:1018900049F411968330910509F4C5C05B96EC9329
:1018A0005B97F0CFEF3229F0EC3539F0E13208F0F8
:1018B000BAC0E13210F424E201C020E2A80EB91E41
:1018C0002FA3C6C018E0C12ED12CBBE08B2E912CCB
:1018D000F501EE0DFF1D10810894E11CF11C113281
:1018E00008F43FC01F3221F4F501EE0DFF1D07C0C3
:1018F0001C3559F4F9CF0894E11CF11C3196808114
:101900008F32C9F38C35B9F32CC01E3219F0C814CC
:10191000D90440F0FBE08F16910409F484C01E3214
:1019200089F281C017FF07C0E12FF0E0EF77F07078
:10193000E157FF4F108189E690E0612F70E00E942F
:10194000811C009709F06FC0812F81568A3108F4FD
:101950001052FE01EC0DFD1D148F0894C11CD11C0A
:10196000B7CFCD2809F45FC08C8D853E09F40C8F6C
:10197000AE0CBF1C113230F0F5018081813210F0C5
:1019800080E001C084E08FA363C04E895F89688DC9
:10199000798DC7010E94A001182F8823D9F4EA8D00
:1019A000FB8D8081882311F414E014C083858F732C
:1019B0008C83838583FD08C0CF01B2014BE050E0EA
:1019C0000E94641C009731F0CE0160E070E00E943C
:1019D0001D0A47C08FA1112391F0143039F590E012
:1019E0009C012470307085FF07C0232B09F434CF8D
:1019F00080E88FA310E01AC0232BB9F017C082FD36
:101A000015C08C8184FF11C06E857F8571706D5CFF
:101A10007F4F660D771DC3010E94C4006E837F83D4
:101A20008887998719CF16E001C015E0812FDF91D3
:101A3000CF911F910F91FF90EF90DF90CF90BF90CB
:101A4000AF909F908F907F906F905F904F90089590
:101A5000E880F980CE0140E050E060E070E00E9454
:101A6000C106182F882309F490CFB4CFDF92EF92EC
:101A7000FF920F931F93DF93CF93CDB7DEB7AA9753
:101A80000FB6F894DEBF0FBECDBF9AA789A77B0122
:101A9000CE0189968E010F5F1F4FB80140E00E9472
:101AA0009C02D82E882309F066C069A57AA5C801D2
:101AB0000E94E50BD82E882309F05DC088A587FF1A
:101AC00003C026E0D22E57C0E114F10409F453C03C
:101AD000F70111868F89988DA98DBA8D0097A10580
:101AE000B10509F448C080E090E0A0E0B0E03EE23B
:101AF000EB8DFC8DE80FF91F20810196203281F0DB
:101B0000253009F425EE8930910529F4F701EA0F13
:101B1000FB1F31871196F701EA0FFB1F21871196F2
:101B20008B30910529F7AE0DBF1D19961C920B8DB8
:101B30001C8DF80183858F73F7018087C8014C964F
:101B40000E948100F7016083718382839383F8018F
:101B5000978980E0268930E0822B932BF7019783C9
:101B60008683F801918D80E0208D30E0822B932BCD
:101B7000F701958384838D2DAA960FB6F894DEBF66
:101B80000FBECDBFCF91DF911F910F91FF90EF90CE
:101B9000DF9008956F927F928F929F92BF92CF9223
:101BA000DF92EF92FF920F931F93DF93CF9300D0BA
:101BB000CDB7DEB76C01BE016F5F7F4F0E941F0182
:101BC000B82E882309F0CAC0D6011E968C9186FFD4
:101BD000C5C00E9444153B014C01F601448D558D52
:101BE000668D778D89819A810E94A001B82E882305
:101BF00009F0B4C0D60190960D911C919197F8010F
:101C0000838580628387ED91FC91119716962D91C3
:101C10003D914D915C911997D8015A962C935A9702
:101C20005B963C938081833031F4CA01AA27BB279D
:101C3000F801848B958BD6011A964D915D916D912B
:101C40007C911D97C8014C960E94AD00C801469634
:101C5000B401A3010E94AD00F801128A138AE98041
:101C6000FA8081E0D70113968C93C7010E944A0144
:101C7000B82E882309F06BC0F7018081833009F00A
:101C80005BC08481813009F057C087010D5C1F4F14
:101C900080E092E0D801FC011D923197E9F721E341
:101CA00032E0E20EF31E85E5D7018D937D018AEACD
:101CB0008C93EEECFDEFEE0EFF1EC80142E552E5FF
:101CC00061E671E40E94AD00C701895E9D4F42E765
:101CD00052E761E471E60E94AD00D7011F964D9175
:101CE0005D916D917C915297C701855E9D4F0E94D9
:101CF000AD00F7014385548565857685C701815E12
:101D00009D4F0E94AD00D7015F962D913D914D9161
:101D10005C9192972F5F3F4F4F4F5F4FF70127A77F
:101D200030AB41AB52AB8181B80101E010E00E94C1
:101D30005500D70114961C92F701818160E040E0C4
:101D400050E00E944C00882311F0BB24B394D601CC
:101D50001E968C911E978F7B1E968C938B2D0F90C9
:101D60000F90CF91DF911F910F91FF90EF90DF9037
:101D7000CF90BF909F908F907F906F9008950F931A
:101D80001F93DF93CF9300D0CDB7DEB78C010E94B5
:101D9000CA0D882359F4C801BE016F5F7F4F0E94AE
:101DA0001F01882319F4F801118210820F900F90FF
:101DB000CF91DF911F910F9108952F923F924F92F3
:101DC0005F926F927F928F929F92AF92BF92CF92CB
:101DD000DF92EF92FF920F931F93DF93CF93CDB7D4
:101DE000DEB729970FB6F894DEBF0FBECDBF5C01FA
:101DF000162F072F1A013F832E83D9011D921C92A3
:101E00008887B986BE016F5F7F4F0E941F018D8357
:101E1000882309F0CFC1F501F785FD83FF2309F081
:101E2000C9C1D5011E968C9181FD03C0B7E0BD8369
:101E3000C1C1F5012089318942895389C101A0E0DE
:101E4000B0E0820F931FA41FB51F82179307A4074A
:101E5000B50718F4190120943094812F902F9C011C
:101E60003C832B839CC1D50150962D913D914D9182
:101E70005C915397DA01C9019170A070B07000971E
:101E8000A105B10509F024C1DA01C90119E0B6952F
:101E9000A795979587951A95D1F7E981FA8161847D
:101EA00072840894610871086822792261147104AF
:101EB00009F052C0211531054105510589F4F5019C
:101EC0002681378140855185211531054105510510
:101ED000D1F48885998540E050E060E070E009C069
:101EE000D50154964D915D916D917C915797888560
:101EF00099850E94D6089B01AC0161157105810589
:101F0000910509F450C1213031054105510511F405
:101F100082E0F2C02F3FFFEF3F07FFEF4F07FFEFD9
:101F20005F0731F481E0D5011F968C938D8342C108
:101F3000F501248B358B468B578B86819781A08545
:101F4000B1850097A105B10539F4D50116962D93F9
:101F50003D934D935C931997E981FA8127A530A9A8
:101F600041A952A9D5015896ED90FD900D911C9173
:101F70005B972E153F054007510731F4CF010E94B2
:101F80004A01882309F0B7C049805A80D501549688
:101F90002D913D914D915C9157972250304040409A
:101FA0005040F2018789908DA18DB28D0297A109D1
:101FB000B109281739074A075B07B8F4018512856C
:101FC000B80180E090E00E940F1C9B01AC01F2017F
:101FD00083A594A5A5A5B6A5280F391F4A1F5B1F89
:101FE000211531054105510511F482E09CCF6301B3
:101FF000EE24FF24C20ED31EE41EF51E4101892CDF
:10200000992486948114910409F443C0C401860D77
:10201000971D0817190718F4480186189708F20148
:1020200081816B817C81A701960184010E9455000A
:10203000882309F077CFE981FA8127A530A941A942
:1020400052A92C193D094E095F09C401A0E0B0E076
:10205000281739074A075B07B8F4A9E0220F331F96
:10206000441F551FAA95D1F78B819C81820F931F26
:10207000DF01D396FC0180E092E001900D92019780
:10208000E1F7E981FA8113828401102F0027110FF3
:1020900056C0F5012089318942895389828593850B
:1020A000A485B585281739074A075B0760F0C20188
:1020B0000E944A01882309F035CFE981FA81C7A639
:1020C000D0AAE1AAF2AAF501C08ED18EE28EF38EDB
:1020D000D5015096ED90FD900D911C915397589617
:1020E0004D915D916D917C915B9789819A810E9460
:1020F000A001882321F081E0F501878717CFC70170
:10210000917020E032E0281B390B81012215330544
:1021100008F48901D50150968D919C915197917049
:10212000C39629813A81280F391FC9016B817C81AF
:10213000A8010E94711CE981FA81B1E0B383201AE1
:10214000310AEE81FF8180819181800F911F9183FF
:1021500080832B813C81200F311F3C832B83C8015E
:10216000A0E0B0E0F5012089318942895389820FCE
:10217000931FA41FB51F808B918BA28BB38B2285DD
:1021800033854485558582179307A407B50710F456
:10219000DA01C901F50182879387A487B5872114E5
:1021A000310409F060CED5011E968C911E97806493
:1021B0001E968C938D8129960FB6F894DEBF0FBEC4
:1021C000CDBFCF91DF911F910F91FF90EF90DF90E6
:1021D000CF90BF90AF909F908F907F906F905F90C7
:1021E0004F903F902F9008952F923F924F925F9281
:1021F0006F927F928F929F92AF92BF92CF92DF9217
:10220000EF92FF920F931F93DF93CF93CDB7DEB77B
:1022100029970FB6F894DEBF0FBECDBF5C01162F15
:10222000072F1A013F832E83F901118210828887BC
:10223000B986BE016F5F7F4F0E941F018D83882387
:1022400009F04DC1F501F785FD83FF2309F047C172
:10225000F501868580FD03C0F7E0FD8340C1F501EF
:10226000228533854485558580899189A289B389E2
:10227000281B390B4A0B5B0BC101A0E0B0E028170B
:1022800039074A075B0708F41901812F902F9C0139
:102290003C832B8320C1F5012089318942895389F0
:1022A000DA01C9019170A070B0700097A105B10565
:1022B00009F0C7C0DA01C90169E0B695A7959795FD
:1022C00087956A95D1F7E981FA81018512850150D8
:1022D0001040082319230115110561F52115310559
:1022E0004105510531F4F50166817781808591853D
:1022F00009C0F5014489558966897789888599855A
:102300000E94E505623071058105910508F441C020
:102310006F3FFFEF7F07FFEF8F07FFEF9F0729F466
:1023200081E0F50187878D83DAC0F501648B758BB9
:10233000868B978B49805A80F50124893589468997
:1023400057892250304040405040F2018789908D9B
:10235000A18DB28D0297A109B109281739074A0743
:102360005B07B8F481849284B40180E090E00E941D
:102370000F1C9B01AC01F20183A594A5A5A5B6A5F0
:10238000280F391F4A1F5B1F2115310541055105D3
:1023900011F482E0C6CF6801EE24FF24C20ED31EE2
:1023A000E41EF51E3101672C7724669461147104D4
:1023B00009F442C0C301800F911F8816990618F4D2
:1023C0003401601A710AF20181816B817C81A7015D
:1023D000960183010E946400882309F0A1CFE9815E
:1023E000FA818381882319F127A530A941A952A92F
:1023F0002C193D094E095F09C301A0E0B0E0281780
:1024000039074A075B0798F499E0220F331F441FEE
:10241000551F9A95D1F78B819C81820F931FDC0108
:10242000F39680E092E001900D920197E1F783012D
:10243000102F0027110F2FC0F501C08ED18EE28E14
:10244000F38EF501E088F18802891389408D518D62
:10245000628D738D89819A810E94A001882309F081
:102460005FCFC701917020E032E0281B390B81015A
:102470002215330508F48901F5018089918991704D
:10248000C39629813A81280F391F8B819C81B9011C
:10249000A8010E94711C201A310AEE81FF818081FF
:1024A0009181800F911F918380832B813C81200F2C
:1024B000311F3C832B83980140E050E0F501808977
:1024C0009189A289B389820F931FA41FB51F808BA6
:1024D000918BA28BB38B2114310409F0DCCE8D815A
:1024E00029960FB6F894DEBF0FBECDBFCF91DF9116
:1024F0001F910F91FF90EF90DF90CF90BF90AF9022
:102500009F908F907F906F905F904F903F902F9013
:1025100008952F923F924F925F926F927F928F9287
:102520009F92AF92BF92CF92DF92EF92FF920F9362
:102530001F93DF93CF93CDB7DEB7E5970FB6F8942F
:10254000DEBF0FBECDBF1C017CA76BA7009719F49F
:1025500049E0B42E4DC24F734DA7CE018B96BE01FC
:102560006F5F7F4F0E949C02882309F080C289819F
:102570009A819C838B836BA57CA5CE0103960E94D8
:10258000E50BB82E882329F48AA587FF02C036E020
:10259000B32E8DA5282F30E0C9018C719070892B46
:1025A00009F414C1BB2009F44CC094E0B91609F039
:1025B0005AC2EB80FC808E010D5F1F4FC80140E0C6
:1025C00050E060E070E00E94C106B82E8823D9F484
:1025D000498D5A8D6B8D7C8DC7010E94A001B82E4C
:1025E000882389F4ED8DFE8DE081E53E09F441C23A
:1025F000EE2309F43EC2C80161E070E00E941D0AAA
:10260000B82E882329F3A4E0BA1609F02CC228C2F8
:10261000ED8DFE8D80E2DF011D928A95E9F72D8D0B
:102620003E8DC901DC01FE017F968BE001900D9289
:102630008150E1F781E0F7018383FDA5F860FDA7F4
:1026400006C08F81817109F00BC222FDEBC18DA5FF
:1026500083FFC9C00E9444157B018C018D8D9E8D26
:102660000E96B801A7010E94AD008D8D9E8D4696F5
:10267000B801A7010E94AD000D8D1E8D89819A8140
:10268000B8010E94C4003B014C0180E2D8011B96B6
:102690008C93E981FA81AD8DBE8D5A961C925A9722
:1026A0005B961C925B978081833029F454961C9230
:1026B000549755961C928D8D9E8D4C9640E050E01F
:1026C00060E070E00E94AD00E981FA8181E08383DF
:1026D000611471048104910409F485C087A590A94F
:1026E000A1A9B2A98EA79FA7A8ABB9AB4B805C806C
:1026F00092E0691671048104910408F472C1F20138
:102700008789908DA18DB28D681679068A069B0601
:1027100008F067C153018401CE010396A501B801F9
:102720000E94E5056B017C0161157105810591052C
:1027300009F47EC1613071058105910509F451C12B
:102740008FEFC8168FEFD8068FEFE8068FEFF806E9
:1027500009F46BC1C201A501B80100E010E020E05E
:1027600030E00E94CE07B82E882309F03CC1D20188
:102770001F962D913D914D915C91529757968D9159
:102780009D910D90BC91A02D0297A109B109281728
:1027900039074A075B0760F42F5F3F4F4F4F5F4F8A
:1027A000F2012787308B418B528B84818160848337
:1027B000F2018789908DA18DB28DC816D906EA06DF
:1027C000FB0608F035C156018701A6CFBB2009F0F2
:1027D0004AC18F8184FF03C024E0B22E04C121FFCF
:1027E00002C080FD3DC1FDA5F3FF02C0F064FDA75E
:1027F000E980FA80F70187A590A9A1A9B2A9F10102
:10280000848F958FA68FB78F0D8D1E8D11A300A37A
:10281000C701B8010E94C400D62EC72EB82EA92E1B
:10282000D10116966C93169717967C931797189666
:102830008C93189719969C93C8014C960E9481001E
:102840008B019C01F1016287738784879587F182F0
:10285000E082D70115968D919C9116979383828380
:10286000BDA5B6871786108E118E128E138ED101DC
:1028700050961D921D921D921C925397BDA5B5FFB7
:10288000B6C0011511052105310509F4B0C0008B52
:10289000118B228B338BD70119968D919C911A97AE
:1028A0003C018824992499E0660C771C881C991CAB
:1028B0009A95D1F78D2D9C2DAB2DBA2DAC01BD0174
:1028C00078018901610188279927DC018619970918
:1028D000A809B9098AAB9BABACABBDAB22C0C601A2
:1028E0000E94E505AB01BC0142305105610571054F
:1028F00018F482E0B82E01C0BB244F3F9FEF590768
:102900009FEF69079FEF790711F4BB24B3948AA95D
:102910009BA9ACA9BDA9E80EF91E0A1F1B1FBB206D
:1029200031F46E147F0480069106C8F2BB24D101F5
:1029300054964D935D936D937C935797BB2009F00C
:1029400095C0D801C7019170A070B0700097A10523
:10295000B10509F44DC0C980DA80BEEF6B2EBFEF20
:102960007B2EBFEF8B2EBFEF9B2E640E751E861E37
:10297000971EF6018789908DA18DB28D0297A109CE
:10298000B109681679068A069B0658F521853285B5
:1029900040E050E0C401B3010E940F1C9B01AC0158
:1029A000F60183A594A5A5A5B6A5280F391F4A1F32
:1029B0005B1F211531054105510599F0A9E01695D8
:1029C0000795F794E794AA95D1F72E0D3F1D401F68
:1029D000511FD10158962D933D934D935C935B9776
:1029E00007C0F2E0BF2EF1011182108201C0BB24AA
:1029F0008B2DE5960FB6F894DEBF0FBECDBFCF91FD
:102A0000DF911F910F91FF90EF90DF90CF90BF90DB
:102A1000AF909F908F907F906F905F904F903F907E
:102A20002F900895E8E0BE2EDECFBB24B394DBCF19
:102A300089819A814EA55FA568A979A90E94A00104
:102A4000B82EE981FA81089461087108810891081B
:102A50006386748685869686882309F4C4CEC3CFA0
:102A600077E0B72EC0CFBB2019F2BDCF8B2DB82E8B
:102A7000BACF498D5A8D6B8D7C8DC7010E94A00104
:102A8000B82E882381F7C4CD60E070E08CEF92E42B
:102A900008951F920F920FB60F9211242F933F9318
:102AA0004F935F936F937F938F939F93AF93BF9356
:102AB000EF93FF9380916403909165030196909347
:102AC0006503809364030E944900FF91EF91BF91D9
:102AD000AF919F918F917F916F915F914F913F91B6
:102AE0002F910F900FBE0F901F901895AF92BF922D
:102AF000CF92DF92EF92FF920F931F93DF93CF93CA
:102B0000CDB7DEB7C654D0400FB6F894DEBF0FBEC7
:102B1000CDBF85B58F6085BD8EE483BD89B78068E4
:102B200089BF789480E00E94730080E593EC28ECE4
:102B300030E0F9013197F1F70197D9F78BE191E096
:102B400068E770E041E00E94A10584EF91E028EC85
:102B500030E0F9013197F1F70197D9F7EE24FF241E
:102B60006E010894C11CD11C89E7A82E80E0B82E04
:102B700000D000D000D0EDB7FEB73196ADB7BEB7EC
:102B80001296DC92CE921197B382A282F582E482F1
:102B90000E94931C8DB79EB706960FB6F8949EBF01
:102BA0000FBE8DBF88E693E0B60146E00E94891211
:102BB000182F88E693E00E94CA0D0894E11CF11CCE
:102BC0001123B1F68E010B5E1F4FC80166E870E05D
:102BD0000E948C1CF80101900020E9F73197E01B5E
:102BE000F10B88E693E0B801AF0126E633E00E94DE
:102BF000DD0E88E693E00E94CA0D88E693E00E940D
:102C0000BF0E80E090E0CA5BDF4F0FB6F894DEBFE6
:102C10000FBECDBFCF91DF911F910F91FF90EF902D
:102C2000DF90CF90BF90AF9008956AE070E00E946F
:102C30002E1C70931901609318012FEF2FB9779B09
:102C4000FECF4FB14F3F31F08091180190911901A3
:102C5000892BA1F720E030E04F3F11F421E030E074
:102C6000C9010895C4988FEF8FB9779BFECF8FB1BC
:102C700084EF91E00E941516892B19F021E030E0D5
:102C800008C0C49A8FEF8FB9779BFECF8FB120E039
:102C900030E0C9010895FC0184E1809317019FEFA2
:102CA0009FB9779BFECF8FB18F3F29F48091170199
:102CB0008823B1F71FC08E3FE9F49FEF9FB9779B40
:102CC000FECF8FB180839FB9779BFECF8FB1818379
:102CD0006250704011F03296F1CF8FEF8FB9779B31
:102CE000FECF8FB18FEF8FB9779BFECF8FB121E0F1
:102CF00030E002C020E030E0C90108951F93CF9377
:102D0000DF93EC01162F84EF91E00E941516892BBA
:102D100019F420E030E02BC01FB9779BFECF8FB1B4
:102D20001D3F19F120E032E088818FB9779BFECFFB
:102D300089818FB9779BFECF2250304011F02296C7
:102D4000F3CF8FEF8FB9779BFECF8FB18FEF8FB916
:102D5000779BFECF8FB18FEF8FB9779BFECF8FB16F
:102D600020E030E08F71853011F421E030E0C901BE
:102D7000DF91CF911F910895DF92EF92FF920F9311
:102D80001F93D82E7A018B0187FF0CC087E340E0A8
:102D900050E060E070E00E94BC16823008F052C043
:102DA0008FE7D8228CE0D81661F0C49A8FEF8FB9E4
:102DB000779BFECF8FB10E943216892B11F48FEFD3
:102DC00041C08D2D80648FB9779BFECF8FB1812F4D
:102DD0009927AA27BB278FB9779BFECF8FB1C80150
:102DE000AA27BB278FB9779BFECF8FB1BB27A12F17
:102DF000902F8F2D8FB9779BFECF8FB1EFB8779B38
:102E0000FECF8FB1DD2011F485E906C088E0D81629
:102E100011F487E801C081E08FB9779BFECF8FB1B5
:102E20008CE0D81629F48FEF8FB9779BFECF8FB146
:102E30009AE02FEF2FB9779BFECF8FB187FF02C0AB
:102E40009150C1F71F910F91FF90EF90DF9008957F
:102E5000EF92FF920F931F93DF93CF9300D000D098
:102E6000CDB7DEB71DB887B38F7487BB88B38F74B7
:102E700088BB88B38C6088BB8AE0809317018091FF
:102E800017018823E1F780918E0081FDB5C088B3DA
:102E9000806388BB87B3806B87BB92E59DB981E077
:102EA0008EB99DB98AE09FEF9FB9779BFECF2FB176
:102EB0008150D1F740E050E060E070E00E94BC1625
:102EC000813009F07CC084E68093170188E04AEAEB
:102ED00051E060E070E00E94BC16813009F048C00B
:102EE0007E010894E11CF11C87019FEF9E012B5F7E
:102EF0003F4F9FB9779BFECF8FB1F80181938F0130
:102F0000E217F307B1F78B81813009F058C08C814B
:102F10008A3A09F054C080911701882349F089EA60
:102F200040E050E060E070E40E94BC16882399F70E
:102F300080911701882309F442C08AE340E050E001
:102F400060E070E00E94BC168823C9F59FEF9FB92E
:102F5000779BFECF8FB1F70181937F01E017F107D7
:102F6000B1F7898186FD02C018E02AC018E128C0A7
:102F700089EA40E050E060E070E00E94BC168230D8
:102F800018F001E011E002C009EA14E08091170195
:102F9000882349F0802F40E050E060E070E00E941C
:102FA000BC16882399F780911701882341F080E1AE
:102FB00040E052E060E070E00E94BC16811110E039
:102FC00010931A01C49A8FEF8FB9779BFECF8FB100
:102FD000112341F080918E008E7F80938E0080E5DA
:102FE0008DB90AC01DB887B38F7487BB88B38F743F
:102FF00088BB88B38C6088BB80918E000F900F9047
:103000000F900F90CF91DF911F910F91FF90EF9054
:10301000089580918E000895FF920F931F93CF9390
:10302000DF938C01E9012115310511F484E03EC0E4
:1030300080918E0080FF02C083E038C080911A0129
:1030400084FD07C0F9E0440F551F661F771FFA95EE
:10305000D1F7C230D10518F4E1E1FE2E02C032E111
:10306000F32E8F2D0E94BC168823B1F4C80160E0B6
:1030700072E00E944B16892B29F0219719F000501D
:103080001E4FF4CF82E1F81639F48CE040E050E0B6
:1030900060E070E00E94BC16C49A8FEF8FB9779BF6
:1030A000FECF8FB180E0CD2B09F081E0DF91CF9191
:1030B0001F910F91FF900895CF92DF92EF92FF92B0
:1030C0000F931F93CF93DF936C01E9012115310515
:1030D00011F484E05FC080918E0080FF02C083E025
:1030E00059C080918E0082FF02C082E053C080915F
:1030F0001A0190E084FF03C07A018B0109C07A01B4
:103100008B01A9E0EE0CFF1C001F111FAA95D1F73F
:10311000C130D10571F488E1B801A7010E94BC1645
:10312000882371F5C6016EEF0E947E16C0E0D0E0E4
:1031300023C08C709070892B31F0AE0160E070E09C
:1031400087E90E94BC1689E1B801A7010E94BC165C
:103150008823B1F4C6016CEF0E947E16892B39F0EA
:10316000219729F080E092E0C80ED91EF3CF80E0CD
:1031700090E06DEF0E947E16892B11F4C1E0D0E043
:10318000C49A8FEF8FB9779BFECF8FB180E0CD2BA4
:1031900009F081E0DF91CF911F910F91FF90EF90A7
:1031A000DF90CF900895FF920F931F93DF93CF93FB
:1031B000CDB7DEB760970FB6F894DEBF0FBECDBFB8
:1031C000982F8B0180918E0080FF02C023E002C304
:1031D000933309F450C1943380F4933009F4AFC0B1
:1031E000943028F49923F9F09130D9F42AC097301B
:1031F00009F4AFC19233A9F439C1963309F48CC1F3
:10320000973330F4943309F44EC1953351F463C1CC
:10321000983309F41DC2983308F4ACC1993309F40A
:1032200086C224E0D7C20E943216AC01C49A8FEF46
:103230008FB9779BFECF20E0452B09F0CAC221E071
:10324000C8C289E040E050E060E070E00E94BC1637
:10325000882309F06DC0CE01019660E170E00E9404
:103260004B16892B09F464C08981829586958695D1
:103270008370288569857A85813031F530E040E0BA
:1032800050E02F73307040705070A901332722270F
:103290002F5F3F4F4F4F5F4F962F80E0870F911D5D
:1032A000A0E0B0E0280F391F4A1F5B1FAAE0220FE1
:1032B000331F441F551FAA95D1F7D8012D933D9375
:1032C0004D935C93139732C06295669566956370D3
:1032D00030E0220F331F220F331F260F311D2F5FC7
:1032E0003F4F8F8190E083709070982F8827990FBF
:1032F000990F280F391F40E050E08E818F706B8549
:10330000661F6627661F860F8E5F7370770F870FA5
:1033100090E0099704C0220F331F441F551F8A9560
:10332000D2F7F801208331834283538320E001C028
:1033300021E0C49A8FEF8FB9779BFECF4AC280916C
:103340001A01F82E83FF2FC08DE840E050E060E0C6
:1033500070E00E94BC16882309F081C08FEF8FB9FE
:10336000779BFECF8FB1CE01019660E170E00E94A5
:103370004B16892B09F473C080E39FEF9FB9779BAD
:10338000FECF2FB18150D1F72B8522952F7080E190
:1033900090E0A0E0B0E004C0880F991FAA1FBB1FF7
:1033A0002A95D2F755C089E040E050E060E070E037
:1033B0000E94BC16882309F052C0CE01019660E13C
:1033C00070E00E944B16892B09F449C04B858C850F
:1033D000F2FE1BC0881F8827881F90E00196242FCB
:1033E00030E02F733070220F331F820F931F2E8512
:1033F000229526952695237030E02150304002C05A
:10340000880F991F2A95E2F721C0282F30E02370FA
:10341000307053E0220F331F5A95E1F7829586955D
:103420008770280F311D2F5F3F4F842F90E08C77DE
:10343000907095958795959587950196AC01249FF9
:10344000C001259F900D349F900D1124A0E0B0E0A5
:10345000F80180839183A283B38320E001C021E03F
:10346000C49A8FEF8FB9779BFECFB3C180911A01B9
:10347000DB018C937DC089E040E050E060E070E0CB
:103480000E94BC16882341F4C80160E170E00E94EC
:103490004B1620E0892B09F421E0C49A8FEF8FB9F5
:1034A000779BFECF96C18AE040E050E060E070E09C
:1034B0000E94BC16882341F4C80160E170E00E94BC
:1034C0004B1620E0892B09F421E0C49A8FEF8FB9C5
:1034D000779BFECF7EC18AE340E050E060E070E081
:1034E0000E94BC16882389F4F8019FEF98012D5F94
:1034F0003F4F9FB9779BFECF8FB18083E217F307D1
:1035000011F420E003C03196F4CF21E0C49A8FEF8C
:103510008FB9779BFECF5DC18DE840E050E060E061
:1035200070E00E94BC16882369F48FEF8FB9779BF7
:10353000FECF8FB1C80160E470E00E944B1620E01E
:10354000892B09F421E0C49A8FEF8FB9779BFECFC6
:1035500040C11DB887B38F7487BB88B38F7488BB95
:1035600088B38C6088BB80918E00816080938E00D0
:1035700020E030C1FB01438154816581768139E0CF
:10358000440F551F661F771F3A95D1F770688081E9
:1035900090E0A0E0B0E02CE1880F991FAA1FBB1FAC
:1035A0002A95D1F7482B592B6A2B7B2B818192814D
:1035B0000197A0E0B0E09170A070B070482B592B3B
:1035C0006A2B7B2B80E30E94BC168823D1F584E60E
:1035D000809317019FEF9FB9779BFECF8FB18F3FED
:1035E00029F4809117018823B1F72BC08E3F49F54C
:1035F000D8011796ED91FC91189711962D913C9159
:1036000012979FEF07C09FB9779BFECF8FB1819331
:103610002150304021153105B1F722E032E0F801A8
:1036200081819281281B390B8FEF06C08FB9779B60
:10363000FECF9FB12150304021153105B9F720E070
:1036400001C021E0C49A8FEF8FB9779BFECFC1C034
:10365000DB0113964D915D916D917C911697F9E088
:10366000440F551F661F771FFA95D1F770688C912C
:1036700090E0A0E0B0E0ECE1880F991FAA1FBB1F0B
:10368000EA95D1F7482B592B6A2B7B2BF8018181C6
:1036900092810197A0E0B0E09170A070B070482BCB
:1036A000592B6A2B7B2B81E30E94BC168823C1F522
:1036B0008FEF8FB9779BFECF8FB18EEF8FB9779B4E
:1036C000FECF8FB1D8011796ED91FC911897119606
:1036D0006D917C9112979B0108C080818FB9779B77
:1036E000FECF31968FB12150304021153105A9F719
:1036F00022E032E0261B370B8FEF06C08FB9779B95
:10370000FECF9FB12150304021153105B9F78FEF21
:103710008FB9779BFECF8FB120E08F71853009F094
:1037200021E0C49A8FEF8FB9779BFECF52C0FB0187
:10373000438154816581768139E0440F551F661FAE
:10374000771F3A95D1F77468808190E0A0E0B0E0EF
:103750002CE1880F991FAA1FBB1F2A95D1F7482B70
:10376000592B6A2B7B2B828190E0A0E0B0E0482BA4
:10377000592B6A2B7B2B81E30E94BC16882319F5F9
:103780008FEF8FB9779BFECF8FB18EEF8FB9779B7D
:10379000FECF8FB1D80111968C918FB9779BFECF58
:1037A0008FB181E092E02FEF2FB9779BFECF3FB131
:1037B0000197D1F78FEF8FB9779BFECF8FB120E0C4
:1037C0008F71853009F021E0C49A8FEF8FB9779B14
:1037D000FECF8FB1822F60960FB6F894DEBF0FBE7A
:1037E000CDBFCF91DF911F910F91FF9008958091F0
:1037F0001701882319F081508093170180911801D7
:1038000090911901009729F00197909319018093E5
:10381000180180918E00897F80938E000895629FA9
:10382000D001739FF001829FE00DF11D649FE00DB8
:10383000F11D929FF00D839FF00D749FF00D659F19
:10384000F00D9927729FB00DE11DF91F639FB00D18
:10385000E11DF91FBD01CF0111240895AA1BBB1B57
:1038600051E107C0AA1FBB1FA617B70710F0A61B80
:10387000B70B881F991F5A95A9F780959095BC01A1
:10388000CD010895A1E21A2EAA1BBB1BFD010DC09C
:10389000AA1FBB1FEE1FFF1FA217B307E407F50700
:1038A00020F0A21BB30BE40BF50B661F771F881FDC
:1038B000991F1A9469F760957095809590959B0172
:1038C000AC01BD01CF010895FB01DC0104C08D9165
:1038D0000190801921F441505040C8F7881B990B82
:1038E0000895FB01DC0102C001900D92415050404F
:1038F000D8F70895DC0101C06D9341505040E0F7C6
:103900000895FC018191861721F08823D9F7992722
:1039100008953197CF010895FB01DC0101900D92CC
:103920000020E1F70895AEE0B0E0E9E9FCE10C9495
:10393000421F0D891E8986E08C831A8309838FEFCD
:103940009FE79E838D839E01275E3F4FCE010196A8
:103950006F89788DA9010E94B71C2F813885020FCD
:10396000131FF80110822E96E4E00C945E1FABE06A
:10397000B0E0EDEBFCE10C94341F3C012B015A014B
:10398000FC0117821682838181FD03C06FEF7FEFF8
:10399000C6C19AE0892E1E010894211C311CF30136
:1039A0002381F20123FD859123FF81912F0188233B
:1039B00009F4B2C1853239F423FD859123FF819149
:1039C0002F01853229F490E0B3010E94AA1EE7CFAF
:1039D000982FFF24EE249924FFE1FF15D0F09B32AD
:1039E00069F09C3228F4903259F0933291F40EC071
:1039F0009D3249F0903369F441E024C052E0F52A49
:103A000084E0F82A28C098E0F92A25C0E0E1FE2ADF
:103A100022C0F7FC29C0892F80538A3070F4F6FE4B
:103A200005C0989C902C1124980E15C0E89CE02CA1
:103A30001124E80EF0E2FF2A0EC09E3229F4F6FCB3
:103A40006BC140E4F42A07C09C3619F450E8F52A0B
:103A500002C0983649F4F20123FD959123FF91911C
:103A60002F01992309F0B8CF892F8554833018F09E
:103A70008052833038F444E050E0A40EB51E5FE37A
:103A800059830FC0933631F0933779F0933509F0AD
:103A900056C020C0F5018081898342E050E0A40E29
:103AA000B51E610101E010E012C0F501C080D180B7
:103AB000F6FC03C06FEF7FEF02C0692D70E042E0BB
:103AC00050E0A40EB51EC6010E949F1E8C015FE748
:103AD000F52214C0F501C080D180F6FC03C06FEF61
:103AE0007FEF02C0692D70E042E050E0A40EB51EE9
:103AF000C6010E94941E8C0150E8F52AF3FE07C00F
:103B00001AC080E290E0B3010E94AA1EEA948E2DB2
:103B100090E008171907A8F30EC0F601F7FC85918D
:103B2000F7FE81916F0190E0B3010E94AA1EE1109F
:103B3000EA94015010400115110579F7EAC0943656
:103B400011F0993669F5F7FE08C0F5012081318141
:103B50004281538184E090E00AC0F5018081918127
:103B60009C01442737FD4095542F82E090E0A80E39
:103B7000B91E9FE6F92257FF09C050954095309530
:103B800021953F4F4F4F5F4FE0E8FE2ACA01B90130
:103B9000A1012AE030E00E94D61ED82ED21840C0E3
:103BA000953729F41F2D1F7E2AE030E01DC01F2D00
:103BB000197F9F3661F0903720F4983509F0ACC03A
:103BC0000FC0903739F0983709F0A6C004C028E03C
:103BD00030E00AC0106114FD146020E130E004C040
:103BE00014FD166020E132E017FF08C0F501608186
:103BF00071818281938144E050E008C0F5018081A9
:103C00009181BC0180E090E042E050E0A40EB51E3E
:103C1000A1010E94D61ED82ED2188FE7F82EF122CD
:103C2000F6FE0BC05EEFF522D91438F4F4FE07C09F
:103C3000F2FC05C08FEEF82202C01D2D01C0192D27
:103C4000F4FE0DC0FE01ED0DF11D8081803319F4ED
:103C500099EEF92208C01F5FF2FE05C003C08F2D48
:103C6000867809F01F5F0F2DF3FC14C0F0FE0FC023
:103C70001E1510F09D2C0BC09D2C9E0C911A1E2D14
:103C800006C080E290E0B3010E94AA1E1F5F1E15CD
:103C9000C0F304C01E1510F4E11A01C0EE2404FFA5
:103CA0000FC080E390E0B3010E94AA1E02FF1DC076
:103CB00001FD03C088E790E00EC088E590E00BC0EE
:103CC000802F867891F001FF02C08BE201C080E274
:103CD000F7FC8DE290E0B3010E94AA1E06C080E3CB
:103CE00090E0B3010E94AA1E9A94D914C0F3DA940A
:103CF000F101ED0DF11D808190E0B3010E94AA1E3B
:103D0000DD20A9F706C080E290E0B3010E94AA1E60
:103D1000EA94EE20C1F743CEF30166817781CB01AF
:103D20002B96E2E10C94501FFC010590615070400D
:103D30000110D8F7809590958E0F9F1F0895FC0174
:103D40006150704001900110D8F7809590958E0FCA
:103D50009F1F08950F931F93CF93DF938C01EB0167
:103D60008B8181FF1BC082FF0DC02E813F818C8122
:103D70009D812817390764F4E881F9810193F9835B
:103D8000E88306C0E885F985802F0995892B31F4F1
:103D90008E819F8101969F838E8302C00FEF1FEF5C
:103DA000C801DF91CF911F910F910895FA01AA27C1
:103DB000283051F1203181F1E8946F936E7F6E5F6E
:103DC0007F4F8F4F9F4FAF4FB1E03ED0B4E03CD01C
:103DD000670F781F891F9A1FA11D680F791F8A1FFF
:103DE000911DA11D6A0F711D811D911DA11D20D066
:103DF00009F468943F912AE0269F11243019305D20
:103E00003193DEF6CF010895462F4770405D419310
:103E1000B3E00FD0C9F7F6CF462F4F70405D4A335D
:103E200018F0495D31FD4052419302D0A9F7EACF25
:103E3000B4E0A6959795879577956795BA95C9F754
:103E400000976105710508959B01AC010A2E069447
:103E50005795479537952795BA95C9F7620F731F00
:103E6000841F951FA01D08952F923F924F925F923D
:103E70006F927F928F929F92AF92BF92CF92DF927A
:103E8000EF92FF920F931F93CF93DF93CDB7DEB7DF
:103E9000CA1BDB0B0FB6F894DEBF0FBECDBF099473
:103EA0002A88398848885F846E847D848C849B84CA
:103EB000AA84B984C884DF80EE80FD800C811B81D8
:103EC000AA81B981CE0FD11D0FB6F894DEBF0FBE07
:0A3ED000CDBFED010895F894FFCF77
:103EDA004641543332202020002A2B2C3A3B3C3DC9
:103EEA003E5B5D7C223F7F0000736B616E657225CD
:103EFA00642E7478740054656B7374210A0001800F
:103F0A009A45418E418F804545454949498E8F9052
:103F1A0092924F994F555559999A9B9C9D9E9F41B4
:103F2A00494F55A5A5A6A7A8A9AAABACADAEAFB0F7
:103F3A00B1B2B3B4B5B6B7B8B9BABBBCBDBEBFC0EF
:103F4A00C1C2C3C4C5C6C7C8C9CACBCCCDCECFD0DF
:103F5A00D1D2D3D4D5D6D7D8D9DADBDCDDDEDFE0CF
:103F6A00E1E2E3E4E5E6E7E8E9EAEBECEDEEEFF0BF
:103F7A00F1F2F3F4F5F6F7F8F9FAFBFCFDFEFF00AF
:00000001FF
