:100000000C942A000C9447000C9447000C94470071
:100010000C9447000C9447000C9447000C94470044
:100020000C9447000C9447000C9447000C94470034
:100030000C9447000C9447000C9447000C94470024
:100040000C9447000C9447000C9447000C94470014
:100050000C94470011241FBECFE5D8E0DEBFCDBF12
:1000600011E0A0E6B0E0EAE9F3E202C005900D92EB
:10007000A037B107D9F711E0A0E7B1E001C01D92A8
:10008000AF37B107E1F70E9414110C94CB110C9417
:100090000000EF92FF920F931F937B018C0120E0F1
:1000A00030E040E05FE40E94490388238CF0C801FF
:1000B000B70120E030E040E05FE40E94C1010E940F
:1000C000A9039B01AC01205030404040504806C07D
:1000D000C801B7010E94A9039B01AC01B901CA0183
:1000E0001F910F91FF90EF900895A0E0B0E0EBE733
:1000F000F0E00C948D11DC012B01FA019C919230FF
:1001000008F439C1EB018881823008F433C194309E
:1001100069F4843009F02FC111969C91119789815F
:10012000981709F428C1A6E6B0E025C1843009F487
:1001300021C18230A9F4923009F01DC19A01AD01AC
:1001400088E0EA010990AE01E90109929E0181501F
:10015000C1F7E201898111969C918923818308C1AD
:10016000923009F407C112962D903C901397EB0141
:100170008A819B811496AD90BD90CD90DC901797AD
:10018000EC80FD800E811F819101281B390BB90184
:1001900037FF04C066277727621B730B6032710537
:1001A0000CF061C0121613066CF537014801062EDB
:1001B00004C096948794779467940A94D2F721E0C8
:1001C00030E040E050E004C0220F331F441F551FB1
:1001D0006A95D2F721503040404050402E213F21B7
:1001E00040235123211531054105510521F021E01E
:1001F00030E040E050E079018A01E628F72808293C
:1002000019293CC0232BD1F1260E371E350146019A
:10021000062E04C096948794779467940A94D2F734
:1002200021E030E040E050E004C0220F331F441FC3
:10023000551F6A95D2F721503040404050402A2146
:100240003B214C215D21211531054105510521F04E
:1002500021E030E040E050E059016A01A628B728CB
:10026000C828D9280BC0821593052CF01C01AA249C
:10027000BB24650103C0EE24FF24870111969C91E5
:10028000D20111968C91981709F445C0992339F041
:10029000A80197012A193B094C095D0906C0A6016E
:1002A00095012E193F09400B510B57FD08C01182D3
:1002B0003382228224833583468357831DC081E0A5
:1002C00081833382228288279927DC01821B930B4A
:1002D000A40BB50B84839583A683B7830DC0220F2F
:1002E000331F441F551F24833583468357838281E0
:1002F000938101979383828324813581468157813D
:10030000DA01C9010197A109B1098F5F9F4FAF4F72
:10031000BF4328F30BC0918333822282EA0CFB1C7B
:100320000C1D1D1DE482F5820683178383E0808304
:10033000248135814681578157FF1AC0C901AA27F8
:1003400097FDA095BA2F81709070A070B0705695EF
:10035000479537952795822B932BA42BB52B848318
:100360009583A683B7838281938101969383828349
:10037000DF0101C0D201CD01CDB7DEB7E2E10C94BF
:10038000A911A0E2B0E0E7ECF1E00C9499116983C7
:100390007A838B839C832D833E834F835887E9E048
:1003A000EE2EF12CEC0EFD1ECE010196B7010E943F
:1003B0009A058E010F5E1F4FCE010596B8010E946F
:1003C0009A058A8991E089278A8BC701B801AE0115
:1003D000475E5F4F0E9475000E94C504A096E6E04C
:1003E0000C94B511A0E2B0E0E8EFF1E00C949911A3
:1003F00069837A838B839C832D833E834F835887C5
:10040000F9E0EF2EF12CEC0EFD1ECE010196B701A6
:100410000E949A058E010F5E1F4FCE010596B8010E
:100420000E949A05C701B801AE01475E5F4F0E9466
:1004300075000E94C504A096E6E00C94B511A0E2F8
:10044000B0E0E5E2F2E00C948D1169837A838B834E
:100450009C832D833E834F835887CE010196BE0136
:10046000675F7F4F0E949A05CE010596BE016F5EC1
:100470007F4F0E949A059985923088F08989823051
:10048000C8F0943019F4823051F404C0843029F457
:10049000923081F486E690E0C6C0923049F420E0C4
:1004A0009A858A89981321E02A87CE010996BBC0D4
:1004B000823049F420E09A858A89981321E02A8BBA
:1004C000CE014196B0C02D843E844F8458886D88FB
:1004D0007E888F88988CEE24FF248701AA24BB2471
:1004E000650140E050E060E070E0E0E0F0E0C10174
:1004F00081709070892BE9F0E60CF71C081D191D1E
:100500009A01AB012A0D3B1D4C1D5D1D80E090E062
:10051000A0E0B0E0E614F7040805190520F481E036
:1005200090E0A0E0B0E0BA01A901480F591F6A1F8E
:100530007B1FAA0CBB1CCC1CDD1C97FE08C081E0F5
:1005400090E0A0E0B0E0A82AB92ACA2ADB2A3196B6
:10055000E032F10549F0660C771C881C991C569412
:10056000479437942794C3CFFA85EA892B893C892D
:100570008B859C85280F391F2E5F3F4F17C0CA01FE
:1005800081709070892B61F016950795F794E79428
:1005900080E090E0A0E0B0E8E82AF92A0A2B1B2BC3
:1005A00076956795579547952F5F3F4F77FDE7CF36
:1005B0000CC0440F551F661F771F17FD4160EE0CDE
:1005C000FF1C001F111F21503040403090E05907A0
:1005D00090E0690790E4790760F32B8F3C8FDB0193
:1005E000CA018F779070A070B07080349105A1051A
:1005F000B10561F447FD0AC0E114F10401051105DC
:1006000029F0405C5F4F6F4F7F4F40781A8EFE1786
:1006100011F081E08A8F4D8F5E8F6F8F78A383E01A
:10062000898FCE0149960E94C504A096E2E10C9400
:10063000A911A8E1B0E0EFE1F3E00C94991169830E
:100640007A838B839C832D833E834F83588789E0F5
:10065000E82EF12CEC0EFD1ECE010196B7010E9492
:100660009A058E010F5E1F4FCE010596B8010E94BC
:100670009A058985823040F08989823028F0C70147
:10068000B8010E94120601C08FEF6896E6E00C9454
:10069000B511A8E1B0E0EFE4F3E00C94991169839F
:1006A0007A838B839C832D833E834F83588789E095
:1006B000E82EF12CEC0EFD1ECE010196B7010E9432
:1006C0009A058E010F5E1F4FCE010596B8010E945C
:1006D0009A058985823040F08989823028F0C701E7
:1006E000B8010E94120601C08FEF6896E6E00C94F4
:1006F000B511A8E1B0E0EFE7F3E00C94991169833C
:100700007A838B839C832D833E834F83588789E034
:10071000E82EF12CEC0EFD1ECE010196B7010E94D1
:100720009A058E010F5E1F4FCE010596B8010E94FB
:100730009A058985823040F08989823028F0C70186
:10074000B8010E94120601C081E06896E6E00C94B0
:10075000B511ACE0B0E0EFEAF3E00C949D116983D1
:100760007A838B839C83CE010196BE016B5F7F4FA2
:100770000E949A058D81823061F1823050F184307F
:1007800021F48E81882351F12EC02F81388537FDC9
:1007900020C06E812F3131051CF06623F9F023C093
:1007A0008EE190E0821B930B29853A854B855C8511
:1007B00004C056954795379527958A95D2F76623B5
:1007C000B1F050954095309521953F4F4F4F5F4F79
:1007D0000EC020E030E040E050E009C02FEF3FEFD6
:1007E0004FEF5FE704C020E030E040E050E8B9019F
:1007F000CA012C96E2E00C94B911A8E0B0E0E3E065
:10080000F4E00C9495117B018C0161157105810553
:10081000910519F482E0898360C083E089838EE1C9
:10082000C82ED12CDC82CB82ED82FE820F8318870A
:10083000C801B7010E947604FC013197F7FF3BC065
:10084000222733272E1B3F0B57016801022E04C0BD
:10085000D694C794B794A7940A94D2F740E050E096
:1008600060E070E081E090E0A0E0B0E004C0880FBC
:10087000991FAA1FBB1F2A95D2F70197A109B10999
:100880008E219F21A023B1230097A105B10521F05E
:1008900041E050E060E070E04A295B296C297D2945
:1008A0004D835E836F8378878EE190E08E1B9F0B74
:1008B0009C838B8312C0309781F00E2E04C0EE0C07
:1008C000FF1C001F111F0A94D2F7ED82FE820F83D6
:1008D0001887CE1ADF0ADC82CB821A82CE010196FB
:1008E0000E94C5042896EAE00C94B111EF92FF92A1
:1008F0000F931F937B018C0180E0E81680E0F806DF
:1009000081E0080780E0180788F48FEFE816F1040B
:100910000105110531F028F088E090E0A0E0B0E09A
:1009200017C080E090E0A0E0B0E012C080E0E816E0
:1009300080E0F80680E0080781E0180728F088E1E9
:1009400090E0A0E0B0E004C080E190E0A0E0B0E082
:1009500020E230E040E050E0281B390B4A0B5B0BF3
:1009600004C016950795F794E7948A95D2F7F70196
:10097000E259FF4F8081281B310941095109C90102
:100980001F910F91FF90EF900895DF92EF92FF92E9
:100990000F931F93FC01E480F58006811781D180BD
:1009A0008081823048F480E090E0A0E1B0E0E82A65
:1009B000F92A0A2B1B2BA5C0843009F49FC0823072
:1009C00021F4EE24FF24870105C0E114F1040105A0
:1009D000110519F4E0E0F0E096C0628173819FEFA9
:1009E000623879070CF05BC022E83FEF261B370B1B
:1009F0002A3131052CF020E030E040E050E02AC000
:100A0000B801A701022E04C07695679557954795C2
:100A10000A94D2F781E090E0A0E0B0E004C0880F33
:100A2000991FAA1FBB1F2A95D2F70197A109B109E7
:100A30008E219F21A023B1230097A105B10521F0AC
:100A400081E090E0A0E0B0E09A01AB01282B392BC7
:100A50004A2B5B2BDA01C9018F779070A070B070C0
:100A600080349105A105B10539F427FF09C0205C48
:100A70003F4F4F4F5F4F04C0215C3F4F4F4F5F4F81
:100A8000E0E0F0E02030A0E03A07A0E04A07A0E470
:100A90005A0710F0E1E0F0E079018A0127C06038E0
:100AA000710564F5FB01E158FF4FD801C7018F774D
:100AB0009070A070B07080349105A105B10539F433
:100AC000E7FE0DC080E490E0A0E0B0E004C08FE35A
:100AD00090E0A0E0B0E0E80EF91E0A1F1B1F17FF10
:100AE00005C016950795F794E794319687E016951B
:100AF0000795F794E7948A95D1F705C0EE24FF2473
:100B00008701EFEFF0E06E2F679566276795902FCE
:100B10009F77D794DD24D7948E2F8695492F462B27
:100B2000582F5D29B701CA011F910F91FF90EF90D7
:100B3000DF900895FC01DB01408151812281622F09
:100B40006F7770E0221F2227221F9381892F880F41
:100B5000822B282F30E0991F9927991F11969C937B
:100B6000119721153105A9F541155105610571054B
:100B700011F482E037C082E89FEF13969C938E9326
:100B800012979A01AB0167E0220F331F441F551FD4
:100B90006A95D1F783E08C930DC0220F331F441F59
:100BA000551F12968D919C911397019713969C93C4
:100BB0008E931297203080E0380780E0480780E469
:100BC000580758F314962D933D934D935C931797C4
:100BD00008952F3F310579F44115510561057105DF
:100BE00019F484E08C93089564FF03C081E08C9332
:100BF00012C01C9210C02F57304013963C932E9376
:100C0000129783E08C9387E0440F551F661F771F70
:100C10008A95D1F7706414964D935D936D937C9390
:100C2000179708951F93DC01FB019C91923008F403
:100C300047C08081823008F443C0943051F411964B
:100C40001C91843099F58181682F70E0611B7109D6
:100C50003FC0843021F0923031F48230B9F181818B
:100C6000882389F12DC011961C9111978230F1F0E3
:100C700081811817D9F412962D913C911397828196
:100C800093818217930794F028173907BCF01496C4
:100C90008D919D910D90BC91A02D2481358146812F
:100CA0005781281739074A075B0718F4112341F0C9
:100CB0000AC082179307A407B50740F4112319F05F
:100CC00061E070E005C06FEF7FEF02C060E070E0B0
:100CD000CB011F91089580FF02C0D89A01C0D89817
:100CE00081FF02C0D99A01C0D99882FF02C0DA9A66
:100CF00001C0DA9883FF02C0DB9A0895DB9808955B
:100D00001F93182FC19A82958F700E946B06C1980D
:100D1000C19A812F0E946B06C19885E88A95F1F7E8
:100D20001F910895C0980E9480060895C09A0E945D
:100D300080060895CF93DF93EC0103C021960E94B3
:100D4000960688818823D1F7DF91CF910895629527
:100D5000660F660F607C680F862F80680E9492067F
:100D6000089581E00E94920680EA9FE00197F1F7E2
:100D7000089582E00E94920680EA9FE00197F1F7D1
:100D800008951F93CF93DF93D09AD19AD29AD39A92
:100D9000B99AB89A80E395E70197F1F7C098C1989E
:100DA00010E0C0E1D7E2C19A83E00E946B06C198CF
:100DB000CE010197F1F71F5F1330A9F7C19A82E0C6
:100DC0000E946B06C19880ED97E00197F1F788E2E9
:100DD0000E94920688E00E94920681E00E9492069C
:100DE00080EA9FE00197F1F786E00E9492068CE08E
:100DF0000E949206DF91CF911F91089580916E011C
:100E0000089580917201109272010895909371017A
:100E100080937001089580917001909171010895FF
:100E2000009719F420E030E019C001979C0140E0E0
:100E300050E060E070E006C05695479537952795DD
:100E40006F5F7F4FDA01C90180700097A105B1057E
:100E500099F73070962F8827282B392BC9010895D0
:100E6000AF92BF92CF92DF92EF92FF920F931F93B8
:100E70005C0170E080E090E020E03FE24AE350E077
:100E80000E944C116C507E4F8F4F9F4F28EE33E0E5
:100E900040E050E00E946B1179018A01CC24DD24EE
:100EA000C801B701A60195010E944C11169507953E
:100EB000F794E7946E0D7F1D801F911F28EE33E09D
:100EC00040E050E00E946B11CA01B9011F910F91DF
:100ED000FF90EF90DF90CF90BF90AF9008956F920A
:100EE0007F928F929F92AF92BF92CF92DF92EF92BA
:100EF000FF920F931F933B014C0150E060E070E0C4
:100F0000CB01BA0120E03FE24AE350E00E944C11DD
:100F10006C507E4F8F4F9F4F28EE33E040E050E003
:100F20000E946B1179018A0157016801D694C79418
:100F3000B794A794C401B30128EE33E040E050E039
:100F40000E944C11A60EB71EC81ED91EC601B501BF
:100F5000A80197010E946B11CA01B9011F910F915D
:100F6000FF90EF90DF90CF90BF90AF909F908F90C9
:100F70007F906F900895EF92FF920F931F93CF93FE
:100F8000DF93182F7B01042F80916E010E942610A1
:100F9000812F0E947D1080916E0181600E946F10F0
:100FA000E7010AC0023018F00E94911002C00E94AE
:100FB0009F108883015021960023A1F70E94721090
:100FC000DF91CF911F910F91FF90EF9008950F93B4
:100FD0001F93CF93DF93182FEB01042F80916E01A5
:100FE0000E942610812F0E947D1004C089910E94CA
:100FF0007D1001500023D1F70E947210DF91CF9134
:101000001F910F9108956F927F928F929F92AF924E
:10101000BF92CF92DF92EF92FF920F931F93182F00
:1010200080916E010E942610812F0E947D10809178
:101030006E0181600E946F100E949110682E7724CB
:1010400088249924962C8824772466240E94911061
:10105000A82E0E949110E82E0E949F10BB24CC2441
:10106000DD246501BB24AA246A287B288C289D28BE
:1010700090E0A0E0B0E0682A792A8A2A9B2A0E94A0
:101080007210FF2400E010E0102F0F2DFE2CEE2434
:10109000E628F72808291929B701C8011F910F91DF
:1010A000FF90EF90DF90CF90BF90AF909F908F9088
:1010B0007F906F900895EF92FF920F931F93182FD8
:1010C00080916E010E942610812F0E947D108091D8
:1010D0006E0181600E946F100E949110F82EEE2424
:1010E0000E949F10082F0E94721010E00E291F29E5
:1010F000C8011F910F91FF90EF90089584E40E9422
:101100005B08A0E0B0E0BC01CD010E94FD0320E03F
:1011100030E040E05CE30E941F0208951F93182F07
:1011200080916E010E942610812F0E947D10809177
:101130006E0181600E946F100E949F10182F0E9404
:101140007210812F1F9108950F931F938C0181E0DE
:101150000E948E08982F92959170F8019083982F95
:1011600096959695969591709283982F96959695CB
:10117000917091838295869586958370982F917052
:101180009383869584831F910F910895882331F46A
:1011900080E50E948E088F5F880F0895813011F0DE
:1011A0008FEF089580E70E948E088F5F880F089563
:1011B0000F931F93CF93DF938C01EB0180E00E948C
:1011C000C6088883198286E40E948E0890E0019602
:1011D0009D838C8368810E9430076A877B878C8718
:1011E0009D8781E50E945B08282F30E002C0220F16
:1011F000331F9A95E2F72F5F3F4F3F832E83C9013C
:1012000068810E9430076E877F87888B998B81E089
:101210000E94C6088A831B8281E70E945B08282FF0
:1012200030E002C0220F331F9A95E2F72F5F3F4F45
:1012300039872887F8018381882331F08E819F8147
:10124000281B390B39872887888599856A810E94F0
:1012500030076A8B7B8B8C8B9D8BDF91CF911F919D
:101260000F9108950F931F93DF93CF93CDB7DEB700
:101270006B970FB6F894DEBF0FBECDBF8E010F5F28
:101280001F4FC8010E94A408C801BE016A5F7F4FBA
:101290000E94D8088981882329F426E33BE040E0B6
:1012A00050E008C0288939894A895B892C57324F18
:1012B0004F4F5F4F8B81882369F088899989AA896C
:1012C000BB898E549D4FAF4FBF4F880F991FAA1FE8
:1012D000BB1F0BC08A81882361F088899989AA89FC
:1012E000BB898C569D4FAF4FBF4F280F391F4A1FE8
:1012F0005B1F8C81882361F08C899D89AE89BF89B1
:101300008C569D4FAF4FBF4F280F391F4A1F5B1F91
:101310008D81882361F0888D998DAA8DBB8D8A5D22
:101320009D4FAF4FBF4F280F391F4A1F5B1F2093A0
:101330007B0130937C0140937D0150937E01B90184
:10134000CA016B960FB6F894DEBF0FBECDBFCF912A
:10135000DF911F910F910895DF92EF92FF920F930B
:101360001F93D82E7A018B0180916E010E94261066
:101370008D2D0E947D10812F9927AA27BB270E94BF
:101380007D10C801AA27BB270E947D10BB27A12F73
:10139000902F8F2D0E947D108E2D0E947D100E9417
:1013A00072101F910F91FF90EF90DF900895FF92C0
:1013B0000F931F93182FF62E072F80916E010E9416
:1013C0002610812F0E947D10802F0E947D108F2D6E
:1013D0000E947D100E9472101F910F91FF9008953E
:1013E000CF92DF92EF92FF920F931F93DF93CF93F1
:1013F000CDB7DEB76B970FB6F894DEBF0FBECDBF8B
:101400006B017C0160322EE4720720E0820720E04D
:10141000920708F47AC08E010F5F1F4FC8010E9427
:10142000A408C801BE016A5F7F4F0E94D808898165
:10143000882329F428EE38E040E050E008C02889ED
:1014400039894A895B892A5C344F4F4F5F4F8B81C2
:10145000882369F088899989AA89BB898E549D4F10
:10146000AF4FBF4F880F991FAA1FBB1F0BC08A81A8
:10147000882361F088899989AA89BB898C569D4FF8
:10148000AF4FBF4F280F391F4A1F5B1F0C8100232E
:1014900061F08C899D89AE89BF898C569D4FAF4F75
:1014A000BF4F280F391F4A1F5B1F8D81882359F1B9
:1014B000DA01C9018A5D9D4FAF4FBF4FC816D906EB
:1014C000EA06FB0610F1A7019601281B390B4A0B0F
:1014D0005B0BCA01B90148850E946F07002321F008
:1014E0008C859D85680F791FCB010E941007BC0178
:1014F00081E70E94D709C0927B01D0927C01E092E3
:101500007D01F0927E0181E001C080E06B960FB614
:10151000F894DEBF0FBECDBFCF91DF911F910F9129
:10152000FF90EF90DF90CF900895EF92FF920F938E
:101530001F937B018C0120E030E040E050E00E94EE
:10154000790387FD1CC0C801B70128EB3EEF4FEFC0
:1015500053E40E941903181694F0C801B70120E063
:1015600030E040E053E40E941F020E9449009B01CA
:10157000AC0184E4B9010E94D70981E001C080E098
:101580001F910F91FF90EF9008950F931F93182FC5
:10159000062F80916E010E942610812F0E947D10DF
:1015A000802F0E947D100E9472101F910F9108954C
:1015B000682F616080E00E94C50A0E94C31070938A
:1015C00079016093780117C0809170019091710149
:1015D000892B89F00E94C310209178013091790104
:1015E000621B730B20917001309171012617370730
:1015F00010F480E0089583E10E948E0890E08770E7
:101600009070892B09F38BE061E00E94C50A80E0AD
:1016100060E00E94C50A81E008950F931F93CF9365
:10162000DF93EC018B0180E861E00E94C50A8FEF37
:1016300061E00E94C50A80E060E00E94C50A8FEF69
:1016400066E00E94C50A83E80E948E08682F6460E5
:1016500083E80E94C50A8FEF67E00E94C50A81E80F
:1016600061E00E94C50A80E861E00E94C50A84E941
:101670006BE60E94C50A83E860E00E94C50A0E94EA
:10168000C310709379016093780117C08091700145
:1016900090917101892B89F00E94C31020917801EB
:1016A00030917901621B730B2091700130917101AF
:1016B0002617370710F480E035C083E80E948E08B3
:1016C000882321F383E861E00E94C50A82E90E9431
:1016D0008E08982F9F779883881F8827881FF80186
:1016E000808381E860E00E94C50A8FEF66E00E9477
:1016F000C50A83E80E948E08682F6B7F83E80E94EA
:10170000C50A8FEF61E00E94C50A80E061E00E9497
:10171000C50A8FEF60E00E94C50A80E860E00E9481
:10172000C50A81E0DF91CF911F910F910895EF924B
:10173000FF920F931F93DF93CF93CDB7DEB72C9714
:101740000FB6F894DEBF0FBECDBF7C010E94C31060
:1017500070937901609378011BC080917001909122
:101760007101892BA9F00E94C3102091780130915A
:101770007901621B730B2091700130917101261762
:10178000370730F481E0809372010FEF1FEF42C002
:1017900083E10E948E0890E087709070892BE9F2B7
:1017A000E114F10429F48EE10E945B088C012EC043
:1017B00084E1BE016F5F7F4F4CE00E94BB078981CF
:1017C000869586958695F70180879B8180E02C81A0
:1017D00030E0822B932B978386839F8180E028853E
:1017E00030E0822B932B93838283998580E02A8536
:1017F00030E0822B932B958384839B8580E02C851E
:10180000022F10E0082B192B118300838BE061E07D
:101810000E94C50AC8012C960FB6F894DEBF0FBE11
:10182000CDBFCF91DF911F910F91FF90EF90089561
:10183000CF93DF93EC0180E861E00E94C50A8FEF4F
:1018400061E00E94C50A80E060E00E94C50A81E96B
:1018500060917A010E94C50A80E061E00E94C50A99
:101860008FEF60E00E94C50A80E860E00E94C50A30
:1018700080E061E00E94C50A0E94C3107093790164
:10188000609378011BC08091700190917101892B48
:10189000A9F00E94C3102091780130917901621B58
:1018A000730B20917001309171012617370730F4C6
:1018B00081E0809372012FEF3FEF09C080E00E942A
:1018C0008E0880FDE0CFCE010E94970B9C01C901DC
:1018D000DF91CF91089580E061E00E94C50A8FEF0B
:1018E00061E00E94C50A80E060E00E94C50A81E9CB
:1018F00060E00E94C50A80E061E00E94C50A8FEFA7
:1019000060E00E94C50A0895EF92FF920F931F9323
:101910007B018C0180E861E00E94C50A8FEF61E0E5
:101920000E94C50A80E060E00E94C50A81E96091DA
:101930007A010E94C50A80E061E00E94C50A8FEF2B
:1019400060E00E94C50A80E860E00E94C50AE114D8
:10195000F10401051105B1F088EF0E945B080097C2
:1019600049F09C0140E050E0C801B7010E944C11D1
:101970007B018C0184E0B801A7010E94AC0980E0E2
:1019800064E002C080E062E00E94C50A1F910F91EE
:10199000FF90EF900895EF92FF920F931F93DF93C4
:1019A000CF93CDB7DEB76B970FB6F894DEBF0FBEFF
:1019B000CDBFF82E062FE62EE694EA94CE010196CE
:1019C0000E94A408CE010196BE016A5F7F4F0E946B
:1019D000D808FF2009F044C00E3079F00F3020F411
:1019E0000C3009F0D4C006C0003151F0023109F0CA
:1019F000CEC009C087E568E108C087E560E305C09F
:101A000087E560E402C087E560E50E94C50A86E5D7
:101A100068E00E94C50A80E56E2D0E94C50A6C89A7
:101A20007D898E899F89402F0E946F07DC01CB0141
:101A30000E941007BC0181E50E94D7096889798955
:101A40008A899B89402F0E946F0781E06130780767
:101A500010F06FEF01C0615086E40E94C50A7CC09F
:101A600081E0F81609F093C00A3019F10B3020F428
:101A7000083009F08CC006C00C3051F10E3009F06E
:101A800086C035C088E460E10E94C50A87E468E04A
:101A90000E94C50A82E362E00E94C50A80E36CE00E
:101AA0000E94C50A8FEF61E00E94C50A80E360E3EF
:101AB00034C088E468E20E94C50A87E468E00E94B6
:101AC000C50A82E363E00E94C50A80E369E01DC0A5
:101AD00088E468E30E94C50A87E468E00E94C50ABA
:101AE00082E363E00E94C50A80E368E00EC088E4F8
:101AF00068E40E94C50A87E468E00E94C50A82E3A0
:101B000063E00E94C50A80E367E00E94C50A8FEF88
:101B100061E00E94C50A80E360E20E94C50A8FEF7F
:101B200060E00E94C50A80E76E2D0E94C50A688D9C
:101B3000798D8A8D9B8D402F0E946F078C81882321
:101B400021F08C859D85680F791FCB010E941007BD
:101B5000BC0181E70E94D70960917B0170917C01F3
:101B600080917D0190917E010E94F00981E00E94A8
:101B70008E08182F81E062E00E94C50A80E00E9472
:101B8000D80A81E0612F0E94C50A81E001C080E08F
:101B90006B960FB6F894DEBF0FBECDBFCF91DF912D
:101BA0001F910F91FF90EF900895FF920F931F9355
:101BB000DF93CF93CDB7DEB728970FB6F894DEBF8B
:101BC0000FBECDBF882341F089E80E948E08682FA0
:101BD000616089E80E94C50A88E860E00E94C50A41
:101BE00080E861E00E94C50A8FEF61E00E94C50AAB
:101BF00080E060E00E94C50A81E90E948E0880931F
:101C00007A0180E061E00E94C50A8FEF60E00E94E7
:101C1000C50A80E860E00E94C50A80E60E948E083E
:101C2000682F626180E60E94C50A60E070E080E88B
:101C30009EE30E94950A81E06FEF0E94C50ACE01E3
:101C40000196BE016E5F7F4F0E940D0B882309F441
:101C5000E1C180EBBE016D5F7F4F46E00E94BB0794
:101C60008FEF61E00E94C50A8FE460E00E94C50A20
:101C70008EE46CE20E94C50A8FEF60E00E94C50A04
:101C800086EB64EB0E94C50A8A81882311F470E018
:101C900001C07CE0F98060E040E050E0DE01139696
:101CA00001E010E0842F471710F06F15A9F4869516
:101CB00086958695FD01E80FF11DCA018770907029
:101CC000980102C0220F331F8A95E2F7C90180955F
:101CD00020818223808312C0869586958695FD019A
:101CE000E80FF11D808190E09A012770307002C0EA
:101CF000959587952A95E2F780FD6F5F4F5F5F4F5F
:101D00004033510579F680EBBE016D5F7F4F46E0B1
:101D10000E94E7078FEF61E00E94C50A80E060E063
:101D20000E94C50A8FEF60E00E94C50A89E060E06A
:101D30000E94C50A80E160E00E94C50A81E160E07E
:101D40000E94C50A84E261E00E94C50A85E26FEF45
:101D50000E94C50A85E760E00E94C50A8FEF61E036
:101D60000E94C50A8EE46CE20E94C50A88E460E025
:101D70000E94C50A80E360E20E94C50A8FEF60E01E
:101D80000E94C50A80E369E00E94C50A84E560E01C
:101D90000E94C50A81E364E00E94C50A82E363E011
:101DA0000E94C50A80E463E80E94C50A86E465E2F1
:101DB0000E94C50A80E660E00E94C50A87E260E0F2
:101DC0000E94C50A80E566E00E94C50A81E560E0E0
:101DD0000E94C50A82E566E90E94C50A86E568E0B8
:101DE0000E94C50A87E560E30E94C50A81E660E0BB
:101DF0000E94C50A82E660E00E94C50A84E660E0AF
:101E00000E94C50A85E660E00E94C50A86E660EA8F
:101E10000E94C50A8FEF61E00E94C50A82E262E378
:101E20000E94C50A87E464E10E94C50A89E46FEF55
:101E30000E94C50A8AE460E00E94C50A8FEF60E054
:101E40000E94C50A8AE76AE00E94C50A8BE760E043
:101E50000E94C50A88E761E20E94C50A8FEF61E02F
:101E60000E94C50A83E264E30E94C50A82E460E03E
:101E70000E94C50A84E46FEF0E94C50A85E466E209
:101E80000E94C50A86E465E00E94C50A80E460E419
:101E90000E94C50A8EE066E00E94C50A80E26AE1FF
:101EA0000E94C50A83E460E40E94C50A8FEF60E0E7
:101EB0000E94C50A84E363E00E94C50A85E364E4E6
:101EC0000E94C50A8FEF61E00E94C50A81E364E0C9
:101ED0000E94C50A8BE469E00E94C50A8CE465E0B3
:101EE0000E94C50A8DE464E00E94C50A8FEF60E09D
:101EF0000E94C50A84E460E00E94C50A85E460E2AD
:101F00000E94C50A87E468E00E94C50A88E468E286
:101F10000E94C50A87E660E00E94C50A80E764E087
:101F20000E94C50A81E761E00E94C50A82E76EEF60
:101F30000E94C50A86E760E00E94C50A87E760E064
:101F40000E94C50A8FEF61E00E94C50A8DE061E042
:101F50000E94C50A8FEF60E00E94C50A80E861E038
:101F60000E94C50A81E068EF0E94C50A8FEF61E018
:101F70000E94C50A8EE861E00E94C50A80E061E027
:101F80000E94C50A8FEF60E00E94C50A80E860E009
:101F90000E94C50A8AE064E00E94C50A84E80E94A3
:101FA0008E08682F6F7E84E80E94C50A8BE061E08E
:101FB0000E94C50A0E94320960937B0170937C01E4
:101FC00080937D0190937E0181E068EE0E94C50AB6
:101FD00060917B0170917C0180917D0190917E01E7
:101FE0000E94F00981E061E00E94C50A80E40E943D
:101FF000D80A882379F081E062E00E94C50A80E077
:102000000E94D80A882331F081E068EE0E94C50A58
:1020100081E001C080E028960FB6F894DEBF0FBEC5
:10202000CDBFCF91DF911F910F91FF9008951F9326
:10203000182F682F66958AE80E94C50A10936E01D2
:102040001F91089511B882E080B90895282F84EA7D
:1020500086BF8FEF9FEF03C006B607FC03C0019752
:10206000D9F71DC081B1887F883011F08031B9F473
:1020700023B984E886BF8FEF9FEF03C006B607FC45
:1020800003C00197D9F70BC091B1987F983111F433
:1020900080E0089580E0903419F081E0089581E0B7
:1020A000089544EA34E824E946BF06B607FEFDCFAA
:1020B00091B1987F983011F09031B1F783B936BF64
:1020C00006B607FEFDCF91B1987F903211F098359A
:1020D00029F426BF06B604FCFDCFE6CF08950E9482
:1020E0002610089584E986BF8FEF9FEF03C006B6E0
:1020F00004FE02C00197D9F7089583B984E886BF2A
:102100008FEF9FEF03C006B607FC03C00197D9F716
:1021100005C081B190E0887F883209F091E0892F75
:10212000089584EC86BF8FEF9FEF05C006B607FECB
:1021300002C083B108950197C9F780E0089584E84B
:1021400086BF8FEF9FEF05C006B607FE02C083B1C2
:1021500008950197C9F780E008951F9310E0812F3B
:10216000880F0E9426100E9472101F5F1038B9F766
:102170001F91089588E083BF85E083BF8AE78CBF05
:1021800082E089BF08958FB7F89420917301309150
:10219000740140917501509176018FBFB901CA0158
:1021A00008951F920F920FB60F9211248F939F9351
:1021B000AF93BF938091730190917401A0917501C9
:1021C000B09176010F96A11DB11D8093730190937C
:1021D0007401A0937501B093760190917701892FD6
:1021E000835A809377018D37B0F0905290937701A6
:1021F0008091730190917401A0917501B091760165
:102200000196A11DB11D8093730190937401A09359
:102210007501B0937601BF91AF919F918F910F900F
:102220000FBE0F901F901895EF92FF920F931F9380
:10223000DF93CF93CDB7DEB72A970FB6F894DEBF02
:102240000FBECDBF0E94C1060E94B9068E010F5F6E
:102250001F4F88ECE82EF12C0E94B10680E060E070
:102260000E94A706C80160E670E00E94C411C80180
:102270000E949A0680E197E2F7013197F1F7019702
:10228000D9F7EACF82E081BB80E385BB0E942210B0
:102290000E94BA1078940895629FD001739FF00154
:1022A000829FE00DF11D649FE00DF11D929FF00DE6
:1022B000839FF00D749FF00D659FF00D9927729F1D
:1022C000B00DE11DF91F639FB00DE11DF91FBD01A8
:1022D000CF0111240895A1E21A2EAA1BBB1BFD01F8
:1022E0000DC0AA1FBB1FEE1FFF1FA217B307E407F5
:1022F000F50720F0A21BB30BE40BF50B661F771F4D
:10230000881F991F1A9469F760957095809590952C
:102310009B01AC01BD01CF0108952F923F924F92D6
:102320005F926F927F928F929F92AF92BF92CF9265
:10233000DF92EF92FF920F931F93CF93DF93CDB76E
:10234000DEB7CA1BDB0B0FB6F894DEBF0FBECDBFE6
:1023500009942A88398848885F846E847D848C84B7
:102360009B84AA84B984C884DF80EE80FD800C81C0
:102370001B81AA81B981CE0FD11D0FB6F894DEBFA3
:102380000FBECDBFED010895FB01DC0101900D9260
:0A2390000020E1F70895F894FFCF54
:10239A0050726F626100000000000000000000013E
:1023AA0002020303030304040404040404040505E9
:1023BA0005050505050505050505050505050606C1
:1023CA0006060606060606060606060606060606A3
:1023DA000606060606060606060606060606070791
:1023EA000707070707070707070707070707070773
:1023FA000707070707070707070707070707070763
:10240A000707070707070707070707070707070752
:10241A000707070707070707070707070707080840
:10242A000808080808080808080808080808080822
:10243A000808080808080808080808080808080812
:10244A000808080808080808080808080808080802
:10245A0008080808080808080808080808080808F2
:10246A0008080808080808080808080808080808E2
:10247A0008080808080808080808080808080808D2
:10248A0008080808080808080808080808080808C2
:10249A000808080808080808080808080808520070
:00000001FF
