:100000000C942A000C943C000C943C000C943C0092
:100010000C943C000C943C000C943C000C94240286
:100020000C943C000C943C000C943C000C943C0060
:100030000C943C000C943C000C943C000C943C0050
:100040000C943C000C943C000C943C000C943C0040
:100050000C943C0011241FBECFE5D8E0DEBFCDBF1D
:1000600010E0A0E6B0E001C01D92A136B107E1F7B3
:100070000E9435020C946B020C9400008EB58860CF
:100080008EBD8EB584608EBD88E59BE19BBD8ABD2B
:1000900089B7806189BF78940895CF92DF92EF92FB
:1000A000FF921F936B017C01142F0E943E001130C0
:1000B00009F042C0B89AB99ABA9ABB9A20E030E0E7
:1000C00040E050E080916000882309F4C39880915B
:1000D0006000813009F4C19A80916000823009F497
:1000E000C09880916000833009F4C29A80916000CA
:1000F000843009F4C19880916000853009F4C39A76
:1001000080916000863009F4C29880916000873049
:1001100009F4C09A809160008830A0F210926000CB
:100120002F5F3F4F4F4F5F4FC216D306E406F506D1
:1001300048F6C098C39844C0123009F041C0D09A24
:10014000D19AD29AD39A20E030E040E050E08091FA
:100150006000882309F4DB9880916000813009F405
:10016000D99A80916000823009F4D898809160001B
:10017000833009F4DA9A80916000843009F4D998C8
:1001800080916000853009F4DB9A809160008630B0
:1001900009F4DA9880916000873009F4D89A809148
:1001A00060008830A0F2109260002F5F3F4F4F4FE9
:1001B0005F4FC216D306E406F50648F6D898DB98DA
:1001C0001F91FF90EF90DF90CF900895CF92DF9234
:1001D000EF92FF921F936B017C01142F0E943E004F
:1001E000113009F042C0B89AB99ABA9ABB9A20E085
:1001F00030E040E050E080916000882309F4C0982E
:1002000080916000813009F4C29A80916000823050
:1002100009F4C39880916000833009F4C19A8091F9
:100220006000843009F4C29880916000853009F440
:10023000C09A80916000863009F4C1988091600076
:10024000873009F4C39A809160008830A0F2109240
:1002500060002F5F3F4F4F4F5F4FC216D306E4063B
:10026000F50648F6C098C39844C0123009F041C062
:10027000D09AD19AD29AD39A20E030E040E050E070
:1002800080916000882309F4D898809160008130C3
:1002900009F4DA9A80916000823009F4DB98809149
:1002A0006000833009F4D99A80916000843009F4A9
:1002B000DA9880916000853009F4D89A80916000C6
:1002C000863009F4D99880916000873009F4DB9A70
:1002D000809160008830A0F2109260002F5F3F4F45
:1002E0004F4F5F4FC216D306E406F50648F6D8987E
:1002F000DB981F91FF90EF90DF90CF900895EF92E1
:10030000FF920F931F937B018C010E943E00D09AB5
:10031000D19AD29AD39A89E0EE0CFF1C001F111FCC
:100320008A95D1F7C801B70128E631E040E050E0F6
:100330000E94490279018A0120E030E040E050E06B
:1003400080916000882311F4D89ADA988091600037
:10035000813011F4D99ADB9880916000823011F4D9
:10036000DA9AD89880916000833011F4DB9AD9989A
:1003700080916000843020F3109260002F5F3F4F27
:100380004F4F5F4FE216F30604071507C8F61F919B
:100390000F91FF90EF900895EF92FF920F931F93AC
:1003A0007B018C010E943E00D09AD19AD29AD39AB6
:1003B00020E030E040E050E080916000882311F4BC
:1003C000DB9AD99880916000813011F4DA9AD8983C
:1003D00080916000823011F4D99ADB98809160009E
:1003E000833011F4D89ADA9880916000843020F339
:1003F000109260002F5F3F4F4F4F5F4FE216F306A2
:1004000004071507C8F61F910F91FF90EF9008950C
:10041000CF93DF93C1E0D0E062E070E080E090E055
:1004200041E00E944D0062E070E080E090E042E038
:100430000E944D00219681E0C130D80769F780E025
:1004400090E0DF91CF9108951F920F920FB60F9217
:1004500011248F93809160008F5F809360008F9153
:100460000F900FBE0F901F901895D19A28EC30E096
:10047000D99A80E197E2F9013197F1F70197D9F71D
:10048000D99880E197E2F9013197F1F70197D9F70F
:10049000EFCFA1E21A2EAA1BBB1BFD010DC0AA1FA4
:1004A000BB1FEE1FFF1FA217B307E407F50720F0DD
:1004B000A21BB30BE40BF50B661F771F881F991F58
:1004C0001A9469F760957095809590959B01AC01A1
:0A04D000BD01CF010895F894FFCF9D
:00000001FF
