:100000000C942A000C943C000C943C000C943C0092
:100010000C943C000C943C000C943C000C94330277
:100020000C943C000C943C000C943C000C943C0060
:100030000C943C000C943C000C943C000C943C0050
:100040000C943C000C943C000C943C000C943C0040
:100050000C943C0011241FBECFE5D8E0DEBFCDBF1D
:1000600010E0A0E6B0E001C01D92A136B107E1F7B3
:100070000E9417020C9466020C9400008EB58860F2
:100080008EBD8EB584608EBD82E390E09BBD8ABD3F
:1000900089B7806189BF0895CF92DF92EF92FF9276
:1000A0001F936B017C01122F0E943E007894113047
:1000B00009F041C0889A899A8A9A8B9A21E030E0A7
:1000C00040E050E032C080916000882309F49398AA
:1000D00080916000813009F4919A809160008230B3
:1000E00009F4909880916000833009F4929A80918D
:1000F0006000843009F4919880916000853009F4A3
:10010000939A80916000863009F492988091600003
:10011000873009F4909A809160008830A0F21092A4
:1001200060002F5F3F4F4F4F5F4FC216D306E4066C
:10013000F50648F643C0123009F040C0A49AA59ACB
:10014000A69AA79A21E030E040E050E032C08091CA
:100150006000882309F4AF9880916000813009F431
:10016000AD9A80916000823009F4AC988091600073
:10017000833009F4AE9A80916000843009F4AD9820
:1001800080916000853009F4AF9A809160008630DC
:1001900009F4AE9880916000873009F4AC9A8091A0
:1001A00060008830A0F2109260002F5F3F4F4F4FE9
:1001B0005F4FC216D306E406F50648F61F91FF907E
:1001C000EF90DF90CF900895CF92DF92EF92FF9261
:1001D0001F936B017C01122F0E943E007894113016
:1001E00009F040C0889A899A8A9A8B9A20E030E078
:1001F00040E050E080916000882309F4909880915D
:100200006000813009F4929A80916000823009F494
:10021000939880916000833009F4919A80916000F6
:10022000843009F4929880916000853009F4909AA6
:1002300080916000863009F4919880916000873049
:1002400009F4939A809160008830A1F610926000C2
:100250002F5F3F4F4F4F5F4FC216D306E406F506A0
:1002600048F642C0123009F03FC0A49AA59AA69A57
:10027000A79A20E030E040E050E0809160008823C1
:1002800009F4AC9880916000813009F4AE9A8091B5
:100290006000823009F4AF9880916000833009F4E7
:1002A000AD9A80916000843009F4AE98809160002E
:1002B000853009F4AC9A80916000863009F4AD98DD
:1002C00080916000873009F4AF9A80916000883097
:1002D000A1F6109260002F5F3F4F4F4F5F4FC21645
:1002E000D306E406F50648F61F91FF90EF90DF90E5
:1002F000CF900895EF92FF920F931F937B018C0193
:100300000E943E007894D09AD19AD29AD39A89E0EA
:10031000EE0CFF1C001F111F8A95D1F7C801B70111
:1003200028E631E040E050E00E94440279018A0171
:1003300020E030E040E050E080916000882311F43C
:10034000D89ADA9880916000813011F4D99ADB98BC
:1003500080916000823011F4DA9AD8988091600020
:10036000833011F4DB9AD99880916000843021F7B2
:10037000109260002F5F3F4F4F4F5F4FE216F30622
:1003800004071507C8F61F910F91FF90EF9008958D
:10039000EF92FF920F931F937B018C01CA010E9481
:1003A0003E007894D09AD19AD29AD39A99E0EE0CE2
:1003B000FF1C001F111F9A95D1F7C801B70128E64D
:1003C00031E040E050E00E94440279018A0120E0DF
:1003D00030E040E050E080916000882311F4DB9A27
:1003E000D99880916000813011F4DA9AD898809180
:1003F0006000823011F4D99ADB98809160008330DC
:1004000011F4D89ADA9880916000843021F7109224
:1004100060002F5F3F4F4F4F5F4FE216F306040718
:100420001507C8F61F910F91FF90EF900895D79888
:10043000DF9A0E943E0009C062E070E080E090E038
:1004400041E050E021E00E944C00CF99F5CF60E000
:1004500071E080E090E041E050E021E00E94E400A3
:1004600080E090E008951F920F920FB60F92112432
:100470008F93809160008F5F809360008F910F90C9
:100480000FBE0F901F901895A1E21A2EAA1BBB1B3E
:10049000FD010DC0AA1FBB1FEE1FFF1FA217B30750
:1004A000E407F50720F0A21BB30BE40BF50B661F66
:1004B000771F881F991F1A9469F76095709580952A
:1004C00090959B01AC01BD01CF010895F894FFCF39
:00000001FF
