:100000000C942A000C943F000C943F000C943F0089
:100010000C943F000C943F000C943F000C943F0064
:100020000C943F000C943F000C943F000C943F0054
:100030000C943F000C943F000C943F000C943F0044
:100040000C943F000C943F000C943F000C943F0034
:100050000C943F0011241FBECFE5D8E0DEBFCDBF1A
:1000600010E0A0E6B0E0EAE2F2E002C005900D92F6
:10007000A836B107D9F70E9409010C9413010C941A
:10008000000080FF02C0D89A01C0D89881FF02C04A
:10009000D99A01C0D99882FF02C0DA9A01C0DA98D1
:1000A00083FF02C0DB9A0895DB9808951F93182FF1
:1000B000C19A82958F700E944100C198C19A812F88
:1000C0000E944100C19885E88A95F1F71F91089533
:1000D000C0980E9456000895C09A0E945600089544
:1000E000CF93DF93EC0103C021960E946C008881BE
:1000F0008823D1F7DF91CF9108956295660F660F3F
:10010000607C680F862F80680E946800089581E0F7
:100110000E94680080EA9FE00197F1F7089582E06D
:100120000E94680080EA9FE00197F1F708951F930D
:10013000CF93DF93D09AD19AD29AD39AB99AB89A98
:1001400080E395E70197F1F7C098C19810E0C0E10E
:10015000D7E2C19A83E00E944100C198CE01019785
:10016000F1F71F5F1330A9F7C19A82E00E944100A6
:10017000C19880ED97E00197F1F788E20E9468004E
:1001800088E00E94680081E00E94680080EA9FE0A9
:100190000197F1F786E00E9468008CE00E946800F9
:1001A000DF91CF911F9108950F931F93DF93CF930A
:1001B000CDB7DEB764970FB6F894DEBF0FBECDBFE4
:1001C0000E9497000E948F000E94870080E060E0FC
:1001D0000E947D008E010F5F1F4FC80160E670E036
:1001E0000E940C01C8010E94700080E197E228EC97
:1001F00030E0F9013197F1F70197D9F764960FB61E
:10020000F894DEBF0FBECDBFCF91DF911F910F914C
:1002100008950E94D400FDCFFB01DC0101900D92F6
:0A0220000020E1F70895F894FFCFE5
:08022A0020426C6164212000F8
:00000001FF
