:100000000C942A000C943C000C943C000C943C0092
:100010000C943C000C943C000C943C000C943C0070
:100020000C943C000C943C000C942B020C943C006F
:100030000C943C000C943C000C943C000C943C0050
:100040000C943C000C943C000C943C000C943C0040
:100050000C943C0011241FBECFE5D8E0DEBFCDBF1D
:1000600010E0A0E6B0E001C01D92A136B107E1F7B3
:100070000E943C020C947A020C94000083B78860C2
:1000800083BF83B7846083BF8BE48CBF80E88FBF5E
:1000900089B7826089BF0895CF92DF92EF92FF9275
:1000A0001F936B017C01142F0E943E007894113045
:1000B00009F041C08B9A8A9A899A889A21E030E0A7
:1000C00040E050E032C080916000882309F49098AD
:1000D00080916000813009F4929A809160008230B2
:1000E00009F4939880916000833009F4919A80918B
:1000F0006000843009F4929880916000853009F4A2
:10010000909A80916000863009F491988091600007
:10011000873009F4939A809160008830A0F21092A1
:1001200060002F5F3F4F4F4F5F4FC216D306E4066C
:10013000F50648F643C0123009F040C08F9A8E9AF7
:100140008D9A8C9A21E030E040E050E032C08091FE
:100150006000882309F4949880916000813009F44C
:10016000969A80916000823009F49798809160009F
:10017000833009F4959A80916000843009F4969850
:1001800080916000853009F4949A809160008630F7
:1001900009F4959880916000873009F4979A8091CE
:1001A00060008830A0F2109260002F5F3F4F4F4FE9
:1001B0005F4FC216D306E406F50648F61F91FF907E
:1001C000EF90DF90CF900895CF92DF92EF92FF9261
:1001D0001F936B017C01142F0E943E007894113014
:1001E00009F040C08B9A8A9A899A889A20E030E078
:1001F00040E050E080916000882309F4939880915A
:100200006000813009F4919A80916000823009F495
:10021000909880916000833009F4929A80916000F8
:10022000843009F4919880916000853009F4939AA4
:1002300080916000863009F4929880916000873048
:1002400009F4909A809160008830A1F610926000C5
:100250002F5F3F4F4F4F5F4FC216D306E406F506A0
:1002600048F642C0123009F03FC08F9A8E9A8D9A9C
:100270008C9A20E030E040E050E0809160008823DC
:1002800009F4979880916000813009F4959A8091E3
:100290006000823009F4949880916000833009F402
:1002A000969A80916000843009F49598809160005E
:1002B000853009F4979A80916000863009F4969809
:1002C00080916000873009F4949A809160008830B2
:1002D000A1F6109260002F5F3F4F4F4F5F4FC21645
:1002E000D306E406F50648F61F91FF90EF90DF90E5
:1002F000CF900895EF92FF920F931F937B018C0193
:100300000E943E007894D09AD19AD29AD39A89E0EA
:10031000EE0CFF1C001F111F8A95D1F7C801B70111
:1003200028E631E040E050E00E94580279018A015D
:1003300020E030E040E050E080916000882311F43C
:10034000D89ADA9880916000813011F4D99ADB98BC
:1003500080916000823011F4DA9AD8988091600020
:10036000833011F4DB9AD99880916000843021F7B2
:10037000109260002F5F3F4F4F4F5F4FE216F30622
:1003800004071507C8F61F910F91FF90EF9008958D
:10039000EF92FF920F931F937B018C010E943E000E
:1003A0007894D09AD19AD29AD39A99E0EE0CFF1C05
:1003B000001F111F9A95D1F7C801B70128E631E057
:1003C00040E050E00E94580279018A0120E030E0CC
:1003D00040E050E080916000882311F4DB9AD998C6
:1003E00080916000813011F4DA9AD8988091600091
:1003F000823011F4D99ADB9880916000833011F437
:10040000D89ADA9880916000843021F710926000C9
:100410002F5F3F4F4F4F5F4FE216F306040715075C
:10042000C8F61F910F91FF90EF900895CF93DF933F
:10043000C1E0D0E062E070E080E090E041E00E9446
:10044000E400219681E0C130D807A1F780E090E078
:10045000DF91CF9108951F920F920FB60F92112442
:100460008F93809160008F5F809360008F910F90D9
:100470000FBE0F901F901895CF93DF93C0E0D0E090
:1004800061E070E080E090E041E00E94E40061E023
:1004900070E080E090E042E00E94E400219682E07B
:1004A000C030D80769F780E090E0DF91CF910895E0
:1004B000A1E21A2EAA1BBB1BFD010DC0AA1FBB1F68
:1004C000EE1FFF1FA217B307E407F50720F0A21BDA
:1004D000B30BE40BF50B661F771F881F991F1A9447
:1004E00069F760957095809590959B01AC01BD0171
:0804F000CF010895F894FFCF3D
:00000001FF
